{"abi":[{"inputs":[{"internalType":"uint256","name":"minimum","type":"uint256"},{"internalType":"address","name":"creator","type":"address"}],"stateMutability":"nonpayable","type":"constructor"},{"inputs":[{"internalType":"uint256","name":"index","type":"uint256"}],"name":"approveRequest","outputs":[],"stateMutability":"nonpayable","type":"function"},{"inputs":[{"internalType":"address","name":"","type":"address"}],"name":"approvers","outputs":[{"internalType":"bool","name":"","type":"bool"}],"stateMutability":"view","type":"function"},{"inputs":[],"name":"contribute","outputs":[],"stateMutability":"payable","type":"function"},{"inputs":[{"internalType":"string","name":"description","type":"string"},{"internalType":"uint256","name":"value","type":"uint256"},{"internalType":"address payable","name":"recipient","type":"address"}],"name":"createRequest","outputs":[],"stateMutability":"nonpayable","type":"function"},{"inputs":[{"internalType":"uint256","name":"index","type":"uint256"}],"name":"finalizeRequest","outputs":[],"stateMutability":"nonpayable","type":"function"},{"inputs":[],"name":"manager","outputs":[{"internalType":"address","name":"","type":"address"}],"stateMutability":"view","type":"function"},{"inputs":[],"name":"minimumContribution","outputs":[{"internalType":"uint256","name":"","type":"uint256"}],"stateMutability":"view","type":"function"},{"inputs":[{"internalType":"uint256","name":"","type":"uint256"}],"name":"requests","outputs":[{"internalType":"string","name":"description","type":"string"},{"internalType":"uint256","name":"value","type":"uint256"},{"internalType":"address payable","name":"recipient","type":"address"},{"internalType":"bool","name":"complete","type":"bool"},{"internalType":"uint256","name":"approvalCount","type":"uint256"}],"stateMutability":"view","type":"function"}],"devdoc":{"kind":"dev","methods":{},"version":1},"evm":{"assembly":"    /* \"Campaign.sol\":423:2188  contract Campaign {... */\n  mstore(0x40, 0x80)\n    /* \"Campaign.sol\":822:938  constructor(uint minimum, address creator) {... */\n  callvalue\n  dup1\n  iszero\n  tag_1\n  jumpi\n  0x00\n  dup1\n  revert\ntag_1:\n  pop\n  mload(0x40)\n  sub(codesize, bytecodeSize)\n  dup1\n  bytecodeSize\n  dup4\n  codecopy\n  dup2\n  dup2\n  add\n  0x40\n  mstore\n  dup2\n  add\n  swap1\n  tag_2\n  swap2\n  swap1\n  tag_3\n  jump\t// in\ntag_2:\n    /* \"Campaign.sol\":885:892  creator */\n  dup1\n    /* \"Campaign.sol\":875:882  manager */\n  0x01\n  0x00\n    /* \"Campaign.sol\":875:892  manager = creator */\n  0x0100\n  exp\n  dup2\n  sload\n  dup2\n  0xffffffffffffffffffffffffffffffffffffffff\n  mul\n  not\n  and\n  swap1\n  dup4\n  0xffffffffffffffffffffffffffffffffffffffff\n  and\n  mul\n  or\n  swap1\n  sstore\n  pop\n    /* \"Campaign.sol\":924:931  minimum */\n  dup2\n    /* \"Campaign.sol\":902:921  minimumContribution */\n  0x02\n    /* \"Campaign.sol\":902:931  minimumContribution = minimum */\n  dup2\n  swap1\n  sstore\n  pop\n    /* \"Campaign.sol\":822:938  constructor(uint minimum, address creator) {... */\n  pop\n  pop\n    /* \"Campaign.sol\":423:2188  contract Campaign {... */\n  jump(tag_6)\n    /* \"#utility.yul\":88:205   */\ntag_8:\n    /* \"#utility.yul\":197:198   */\n  0x00\n    /* \"#utility.yul\":194:195   */\n  dup1\n    /* \"#utility.yul\":187:199   */\n  revert\n    /* \"#utility.yul\":334:411   */\ntag_10:\n    /* \"#utility.yul\":371:378   */\n  0x00\n    /* \"#utility.yul\":400:405   */\n  dup2\n    /* \"#utility.yul\":389:405   */\n  swap1\n  pop\n    /* \"#utility.yul\":334:411   */\n  swap2\n  swap1\n  pop\n  jump\t// out\n    /* \"#utility.yul\":417:539   */\ntag_11:\n    /* \"#utility.yul\":490:514   */\n  tag_23\n    /* \"#utility.yul\":508:513   */\n  dup2\n    /* \"#utility.yul\":490:514   */\n  tag_10\n  jump\t// in\ntag_23:\n    /* \"#utility.yul\":483:488   */\n  dup2\n    /* \"#utility.yul\":480:515   */\n  eq\n    /* \"#utility.yul\":470:533   */\n  tag_24\n  jumpi\n    /* \"#utility.yul\":529:530   */\n  0x00\n    /* \"#utility.yul\":526:527   */\n  dup1\n    /* \"#utility.yul\":519:531   */\n  revert\n    /* \"#utility.yul\":470:533   */\ntag_24:\n    /* \"#utility.yul\":417:539   */\n  pop\n  jump\t// out\n    /* \"#utility.yul\":545:688   */\ntag_12:\n    /* \"#utility.yul\":602:607   */\n  0x00\n    /* \"#utility.yul\":633:639   */\n  dup2\n    /* \"#utility.yul\":627:640   */\n  mload\n    /* \"#utility.yul\":618:640   */\n  swap1\n  pop\n    /* \"#utility.yul\":649:682   */\n  tag_26\n    /* \"#utility.yul\":676:681   */\n  dup2\n    /* \"#utility.yul\":649:682   */\n  tag_11\n  jump\t// in\ntag_26:\n    /* \"#utility.yul\":545:688   */\n  swap3\n  swap2\n  pop\n  pop\n  jump\t// out\n    /* \"#utility.yul\":694:820   */\ntag_13:\n    /* \"#utility.yul\":731:738   */\n  0x00\n    /* \"#utility.yul\":771:813   */\n  0xffffffffffffffffffffffffffffffffffffffff\n    /* \"#utility.yul\":764:769   */\n  dup3\n    /* \"#utility.yul\":760:814   */\n  and\n    /* \"#utility.yul\":749:814   */\n  swap1\n  pop\n    /* \"#utility.yul\":694:820   */\n  swap2\n  swap1\n  pop\n  jump\t// out\n    /* \"#utility.yul\":826:922   */\ntag_14:\n    /* \"#utility.yul\":863:870   */\n  0x00\n    /* \"#utility.yul\":892:916   */\n  tag_29\n    /* \"#utility.yul\":910:915   */\n  dup3\n    /* \"#utility.yul\":892:916   */\n  tag_13\n  jump\t// in\ntag_29:\n    /* \"#utility.yul\":881:916   */\n  swap1\n  pop\n    /* \"#utility.yul\":826:922   */\n  swap2\n  swap1\n  pop\n  jump\t// out\n    /* \"#utility.yul\":928:1050   */\ntag_15:\n    /* \"#utility.yul\":1001:1025   */\n  tag_31\n    /* \"#utility.yul\":1019:1024   */\n  dup2\n    /* \"#utility.yul\":1001:1025   */\n  tag_14\n  jump\t// in\ntag_31:\n    /* \"#utility.yul\":994:999   */\n  dup2\n    /* \"#utility.yul\":991:1026   */\n  eq\n    /* \"#utility.yul\":981:1044   */\n  tag_32\n  jumpi\n    /* \"#utility.yul\":1040:1041   */\n  0x00\n    /* \"#utility.yul\":1037:1038   */\n  dup1\n    /* \"#utility.yul\":1030:1042   */\n  revert\n    /* \"#utility.yul\":981:1044   */\ntag_32:\n    /* \"#utility.yul\":928:1050   */\n  pop\n  jump\t// out\n    /* \"#utility.yul\":1056:1199   */\ntag_16:\n    /* \"#utility.yul\":1113:1118   */\n  0x00\n    /* \"#utility.yul\":1144:1150   */\n  dup2\n    /* \"#utility.yul\":1138:1151   */\n  mload\n    /* \"#utility.yul\":1129:1151   */\n  swap1\n  pop\n    /* \"#utility.yul\":1160:1193   */\n  tag_34\n    /* \"#utility.yul\":1187:1192   */\n  dup2\n    /* \"#utility.yul\":1160:1193   */\n  tag_15\n  jump\t// in\ntag_34:\n    /* \"#utility.yul\":1056:1199   */\n  swap3\n  swap2\n  pop\n  pop\n  jump\t// out\n    /* \"#utility.yul\":1205:1712   */\ntag_3:\n    /* \"#utility.yul\":1284:1290   */\n  0x00\n    /* \"#utility.yul\":1292:1298   */\n  dup1\n    /* \"#utility.yul\":1341:1343   */\n  0x40\n    /* \"#utility.yul\":1329:1338   */\n  dup4\n    /* \"#utility.yul\":1320:1327   */\n  dup6\n    /* \"#utility.yul\":1316:1339   */\n  sub\n    /* \"#utility.yul\":1312:1344   */\n  slt\n    /* \"#utility.yul\":1309:1428   */\n  iszero\n  tag_36\n  jumpi\n    /* \"#utility.yul\":1347:1426   */\n  tag_37\n  tag_8\n  jump\t// in\ntag_37:\n    /* \"#utility.yul\":1309:1428   */\ntag_36:\n    /* \"#utility.yul\":1467:1468   */\n  0x00\n    /* \"#utility.yul\":1492:1556   */\n  tag_38\n    /* \"#utility.yul\":1548:1555   */\n  dup6\n    /* \"#utility.yul\":1539:1545   */\n  dup3\n    /* \"#utility.yul\":1528:1537   */\n  dup7\n    /* \"#utility.yul\":1524:1546   */\n  add\n    /* \"#utility.yul\":1492:1556   */\n  tag_12\n  jump\t// in\ntag_38:\n    /* \"#utility.yul\":1482:1556   */\n  swap3\n  pop\n    /* \"#utility.yul\":1438:1566   */\n  pop\n    /* \"#utility.yul\":1605:1607   */\n  0x20\n    /* \"#utility.yul\":1631:1695   */\n  tag_39\n    /* \"#utility.yul\":1687:1694   */\n  dup6\n    /* \"#utility.yul\":1678:1684   */\n  dup3\n    /* \"#utility.yul\":1667:1676   */\n  dup7\n    /* \"#utility.yul\":1663:1685   */\n  add\n    /* \"#utility.yul\":1631:1695   */\n  tag_16\n  jump\t// in\ntag_39:\n    /* \"#utility.yul\":1621:1695   */\n  swap2\n  pop\n    /* \"#utility.yul\":1576:1705   */\n  pop\n    /* \"#utility.yul\":1205:1712   */\n  swap3\n  pop\n  swap3\n  swap1\n  pop\n  jump\t// out\n    /* \"Campaign.sol\":423:2188  contract Campaign {... */\ntag_6:\n  dataSize(sub_0)\n  dup1\n  dataOffset(sub_0)\n  0x00\n  codecopy\n  0x00\n  return\nstop\n\nsub_0: assembly {\n        /* \"Campaign.sol\":423:2188  contract Campaign {... */\n      mstore(0x40, 0x80)\n      jumpi(tag_1, lt(calldatasize, 0x04))\n      shr(0xe0, calldataload(0x00))\n      dup1\n      0x8a9cfd55\n      gt\n      tag_10\n      jumpi\n      dup1\n      0x8a9cfd55\n      eq\n      tag_6\n      jumpi\n      dup1\n      0x937e09b1\n      eq\n      tag_7\n      jumpi\n      dup1\n      0xd7bb99ba\n      eq\n      tag_8\n      jumpi\n      dup1\n      0xd7d1bbdb\n      eq\n      tag_9\n      jumpi\n      jump(tag_1)\n    tag_10:\n      dup1\n      0x03441006\n      eq\n      tag_2\n      jumpi\n      dup1\n      0x0a144391\n      eq\n      tag_3\n      jumpi\n      dup1\n      0x481c6a75\n      eq\n      tag_4\n      jumpi\n      dup1\n      0x81d12c58\n      eq\n      tag_5\n      jumpi\n    tag_1:\n      0x00\n      dup1\n      revert\n        /* \"Campaign.sol\":1888:2186  function finalizeRequest(uint index) public restricted {... */\n    tag_2:\n      callvalue\n      dup1\n      iszero\n      tag_11\n      jumpi\n      0x00\n      dup1\n      revert\n    tag_11:\n      pop\n      tag_12\n      0x04\n      dup1\n      calldatasize\n      sub\n      dup2\n      add\n      swap1\n      tag_13\n      swap2\n      swap1\n      tag_14\n      jump\t// in\n    tag_13:\n      tag_15\n      jump\t// in\n    tag_12:\n      stop\n        /* \"Campaign.sol\":749:790  mapping(address => bool) public approvers */\n    tag_3:\n      callvalue\n      dup1\n      iszero\n      tag_16\n      jumpi\n      0x00\n      dup1\n      revert\n    tag_16:\n      pop\n      tag_17\n      0x04\n      dup1\n      calldatasize\n      sub\n      dup2\n      add\n      swap1\n      tag_18\n      swap2\n      swap1\n      tag_19\n      jump\t// in\n    tag_18:\n      tag_20\n      jump\t// in\n    tag_17:\n      mload(0x40)\n      tag_21\n      swap2\n      swap1\n      tag_22\n      jump\t// in\n    tag_21:\n      mload(0x40)\n      dup1\n      swap2\n      sub\n      swap1\n      return\n        /* \"Campaign.sol\":684:706  address public manager */\n    tag_4:\n      callvalue\n      dup1\n      iszero\n      tag_23\n      jumpi\n      0x00\n      dup1\n      revert\n    tag_23:\n      pop\n      tag_24\n      tag_25\n      jump\t// in\n    tag_24:\n      mload(0x40)\n      tag_26\n      swap2\n      swap1\n      tag_27\n      jump\t// in\n    tag_26:\n      mload(0x40)\n      dup1\n      swap2\n      sub\n      swap1\n      return\n        /* \"Campaign.sol\":653:678  Request[] public requests */\n    tag_5:\n      callvalue\n      dup1\n      iszero\n      tag_28\n      jumpi\n      0x00\n      dup1\n      revert\n    tag_28:\n      pop\n      tag_29\n      0x04\n      dup1\n      calldatasize\n      sub\n      dup2\n      add\n      swap1\n      tag_30\n      swap2\n      swap1\n      tag_14\n      jump\t// in\n    tag_30:\n      tag_31\n      jump\t// in\n    tag_29:\n      mload(0x40)\n      tag_32\n      swap6\n      swap5\n      swap4\n      swap3\n      swap2\n      swap1\n      tag_33\n      jump\t// in\n    tag_32:\n      mload(0x40)\n      dup1\n      swap2\n      sub\n      swap1\n      return\n        /* \"Campaign.sol\":1234:1600  function createRequest(string calldata description, uint value, address payable recipient) public restricted{... */\n    tag_6:\n      callvalue\n      dup1\n      iszero\n      tag_34\n      jumpi\n      0x00\n      dup1\n      revert\n    tag_34:\n      pop\n      tag_35\n      0x04\n      dup1\n      calldatasize\n      sub\n      dup2\n      add\n      swap1\n      tag_36\n      swap2\n      swap1\n      tag_37\n      jump\t// in\n    tag_36:\n      tag_38\n      jump\t// in\n    tag_35:\n      stop\n        /* \"Campaign.sol\":712:743  uint public minimumContribution */\n    tag_7:\n      callvalue\n      dup1\n      iszero\n      tag_39\n      jumpi\n      0x00\n      dup1\n      revert\n    tag_39:\n      pop\n      tag_40\n      tag_41\n      jump\t// in\n    tag_40:\n      mload(0x40)\n      tag_42\n      swap2\n      swap1\n      tag_43\n      jump\t// in\n    tag_42:\n      mload(0x40)\n      dup1\n      swap2\n      sub\n      swap1\n      return\n        /* \"Campaign.sol\":1029:1228  function contribute() public payable {... */\n    tag_8:\n      tag_44\n      tag_45\n      jump\t// in\n    tag_44:\n      stop\n        /* \"Campaign.sol\":1610:1882  function approveRequest(uint index) public {... */\n    tag_9:\n      callvalue\n      dup1\n      iszero\n      tag_46\n      jumpi\n      0x00\n      dup1\n      revert\n    tag_46:\n      pop\n      tag_47\n      0x04\n      dup1\n      calldatasize\n      sub\n      dup2\n      add\n      swap1\n      tag_48\n      swap2\n      swap1\n      tag_14\n      jump\t// in\n    tag_48:\n      tag_49\n      jump\t// in\n    tag_47:\n      stop\n        /* \"Campaign.sol\":1888:2186  function finalizeRequest(uint index) public restricted {... */\n    tag_15:\n        /* \"Campaign.sol\":997:1004  manager */\n      0x01\n      0x00\n      swap1\n      sload\n      swap1\n      0x0100\n      exp\n      swap1\n      div\n      0xffffffffffffffffffffffffffffffffffffffff\n      and\n        /* \"Campaign.sol\":983:1004  msg.sender == manager */\n      0xffffffffffffffffffffffffffffffffffffffff\n      and\n        /* \"Campaign.sol\":983:993  msg.sender */\n      caller\n        /* \"Campaign.sol\":983:1004  msg.sender == manager */\n      0xffffffffffffffffffffffffffffffffffffffff\n      and\n      eq\n        /* \"Campaign.sol\":975:1005  require(msg.sender == manager) */\n      tag_51\n      jumpi\n      0x00\n      dup1\n      revert\n    tag_51:\n        /* \"Campaign.sol\":1953:1976  Request storage request */\n      0x00\n        /* \"Campaign.sol\":1979:1987  requests */\n      dup1\n        /* \"Campaign.sol\":1988:1993  index */\n      dup3\n        /* \"Campaign.sol\":1979:1994  requests[index] */\n      dup2\n      sload\n      dup2\n      lt\n      tag_53\n      jumpi\n      tag_54\n      tag_55\n      jump\t// in\n    tag_54:\n    tag_53:\n      swap1\n      0x00\n      mstore\n      keccak256(0x00, 0x20)\n      swap1\n      0x05\n      mul\n      add\n        /* \"Campaign.sol\":1953:1994  Request storage request = requests[index] */\n      swap1\n      pop\n        /* \"Campaign.sol\":2055:2056  2 */\n      0x02\n        /* \"Campaign.sol\":2038:2052  approversCount */\n      sload(0x04)\n        /* \"Campaign.sol\":2038:2056  approversCount / 2 */\n      tag_57\n      swap2\n      swap1\n      tag_58\n      jump\t// in\n    tag_57:\n        /* \"Campaign.sol\":2013:2020  request */\n      dup2\n        /* \"Campaign.sol\":2013:2034  request.approvalCount */\n      0x03\n      add\n      sload\n        /* \"Campaign.sol\":2013:2057  request.approvalCount > (approversCount / 2) */\n      gt\n        /* \"Campaign.sol\":2005:2058  require(request.approvalCount > (approversCount / 2)) */\n      tag_59\n      jumpi\n      0x00\n      dup1\n      revert\n    tag_59:\n        /* \"Campaign.sol\":2077:2084  request */\n      dup1\n        /* \"Campaign.sol\":2077:2093  request.complete */\n      0x02\n      add\n      0x14\n      swap1\n      sload\n      swap1\n      0x0100\n      exp\n      swap1\n      div\n      0xff\n      and\n        /* \"Campaign.sol\":2076:2093  !request.complete */\n      iszero\n        /* \"Campaign.sol\":2068:2094  require(!request.complete) */\n      tag_60\n      jumpi\n      0x00\n      dup1\n      revert\n    tag_60:\n        /* \"Campaign.sol\":2105:2112  request */\n      dup1\n        /* \"Campaign.sol\":2105:2122  request.recipient */\n      0x02\n      add\n      0x00\n      swap1\n      sload\n      swap1\n      0x0100\n      exp\n      swap1\n      div\n      0xffffffffffffffffffffffffffffffffffffffff\n      and\n        /* \"Campaign.sol\":2105:2131  request.recipient.transfer */\n      0xffffffffffffffffffffffffffffffffffffffff\n      and\n        /* \"Campaign.sol\":2105:2146  request.recipient.transfer(request.value) */\n      0x08fc\n        /* \"Campaign.sol\":2132:2139  request */\n      dup3\n        /* \"Campaign.sol\":2132:2145  request.value */\n      0x01\n      add\n      sload\n        /* \"Campaign.sol\":2105:2146  request.recipient.transfer(request.value) */\n      swap1\n      dup2\n      iszero\n      mul\n      swap1\n      mload(0x40)\n      0x00\n      mload(0x40)\n      dup1\n      dup4\n      sub\n      dup2\n      dup6\n      dup9\n      dup9\n      call\n      swap4\n      pop\n      pop\n      pop\n      pop\n      iszero\n      dup1\n      iszero\n      tag_62\n      jumpi\n      returndatasize\n      0x00\n      dup1\n      returndatacopy\n      revert(0x00, returndatasize)\n    tag_62:\n      pop\n        /* \"Campaign.sol\":2175:2179  true */\n      0x01\n        /* \"Campaign.sol\":2156:2163  request */\n      dup2\n        /* \"Campaign.sol\":2156:2172  request.complete */\n      0x02\n      add\n      0x14\n        /* \"Campaign.sol\":2156:2179  request.complete = true */\n      0x0100\n      exp\n      dup2\n      sload\n      dup2\n      0xff\n      mul\n      not\n      and\n      swap1\n      dup4\n      iszero\n      iszero\n      mul\n      or\n      swap1\n      sstore\n      pop\n        /* \"Campaign.sol\":1943:2186  {... */\n      pop\n        /* \"Campaign.sol\":1888:2186  function finalizeRequest(uint index) public restricted {... */\n      pop\n      jump\t// out\n        /* \"Campaign.sol\":749:790  mapping(address => bool) public approvers */\n    tag_20:\n      mstore(0x20, 0x03)\n      dup1\n      0x00\n      mstore\n      keccak256(0x00, 0x40)\n      0x00\n      swap2\n      pop\n      sload\n      swap1\n      0x0100\n      exp\n      swap1\n      div\n      0xff\n      and\n      dup2\n      jump\t// out\n        /* \"Campaign.sol\":684:706  address public manager */\n    tag_25:\n      0x01\n      0x00\n      swap1\n      sload\n      swap1\n      0x0100\n      exp\n      swap1\n      div\n      0xffffffffffffffffffffffffffffffffffffffff\n      and\n      dup2\n      jump\t// out\n        /* \"Campaign.sol\":653:678  Request[] public requests */\n    tag_31:\n      0x00\n      dup2\n      dup2\n      sload\n      dup2\n      lt\n      tag_63\n      jumpi\n      0x00\n      dup1\n      revert\n    tag_63:\n      swap1\n      0x00\n      mstore\n      keccak256(0x00, 0x20)\n      swap1\n      0x05\n      mul\n      add\n      0x00\n      swap2\n      pop\n      swap1\n      pop\n      dup1\n      0x00\n      add\n      dup1\n      sload\n      tag_65\n      swap1\n      tag_66\n      jump\t// in\n    tag_65:\n      dup1\n      0x1f\n      add\n      0x20\n      dup1\n      swap2\n      div\n      mul\n      0x20\n      add\n      mload(0x40)\n      swap1\n      dup2\n      add\n      0x40\n      mstore\n      dup1\n      swap3\n      swap2\n      swap1\n      dup2\n      dup2\n      mstore\n      0x20\n      add\n      dup3\n      dup1\n      sload\n      tag_67\n      swap1\n      tag_66\n      jump\t// in\n    tag_67:\n      dup1\n      iszero\n      tag_68\n      jumpi\n      dup1\n      0x1f\n      lt\n      tag_69\n      jumpi\n      0x0100\n      dup1\n      dup4\n      sload\n      div\n      mul\n      dup4\n      mstore\n      swap2\n      0x20\n      add\n      swap2\n      jump(tag_68)\n    tag_69:\n      dup3\n      add\n      swap2\n      swap1\n      0x00\n      mstore\n      keccak256(0x00, 0x20)\n      swap1\n    tag_70:\n      dup2\n      sload\n      dup2\n      mstore\n      swap1\n      0x01\n      add\n      swap1\n      0x20\n      add\n      dup1\n      dup4\n      gt\n      tag_70\n      jumpi\n      dup3\n      swap1\n      sub\n      0x1f\n      and\n      dup3\n      add\n      swap2\n    tag_68:\n      pop\n      pop\n      pop\n      pop\n      pop\n      swap1\n      dup1\n      0x01\n      add\n      sload\n      swap1\n      dup1\n      0x02\n      add\n      0x00\n      swap1\n      sload\n      swap1\n      0x0100\n      exp\n      swap1\n      div\n      0xffffffffffffffffffffffffffffffffffffffff\n      and\n      swap1\n      dup1\n      0x02\n      add\n      0x14\n      swap1\n      sload\n      swap1\n      0x0100\n      exp\n      swap1\n      div\n      0xff\n      and\n      swap1\n      dup1\n      0x03\n      add\n      sload\n      swap1\n      pop\n      dup6\n      jump\t// out\n        /* \"Campaign.sol\":1234:1600  function createRequest(string calldata description, uint value, address payable recipient) public restricted{... */\n    tag_38:\n        /* \"Campaign.sol\":997:1004  manager */\n      0x01\n      0x00\n      swap1\n      sload\n      swap1\n      0x0100\n      exp\n      swap1\n      div\n      0xffffffffffffffffffffffffffffffffffffffff\n      and\n        /* \"Campaign.sol\":983:1004  msg.sender == manager */\n      0xffffffffffffffffffffffffffffffffffffffff\n      and\n        /* \"Campaign.sol\":983:993  msg.sender */\n      caller\n        /* \"Campaign.sol\":983:1004  msg.sender == manager */\n      0xffffffffffffffffffffffffffffffffffffffff\n      and\n      eq\n        /* \"Campaign.sol\":975:1005  require(msg.sender == manager) */\n      tag_72\n      jumpi\n      0x00\n      dup1\n      revert\n    tag_72:\n        /* \"Campaign.sol\":1352:1378  Request storage newRequest */\n      0x00\n        /* \"Campaign.sol\":1381:1389  requests */\n      dup1\n        /* \"Campaign.sol\":1381:1396  requests.push() */\n      0x01\n      dup2\n      0x01\n      dup2\n      sload\n      add\n      dup1\n      dup3\n      sstore\n      dup1\n      swap2\n      pop\n      pop\n      sub\n      swap1\n      0x00\n      mstore\n      keccak256(0x00, 0x20)\n      swap1\n      0x05\n      mul\n      add\n        /* \"Campaign.sol\":1352:1396  Request storage newRequest = requests.push() */\n      swap1\n      pop\n        /* \"Campaign.sol\":1431:1442  description */\n      dup5\n      dup5\n        /* \"Campaign.sol\":1406:1416  newRequest */\n      dup3\n        /* \"Campaign.sol\":1406:1428  newRequest.description */\n      0x00\n      add\n        /* \"Campaign.sol\":1406:1442  newRequest.description = description */\n      swap2\n      dup3\n      tag_75\n      swap3\n      swap2\n      swap1\n      tag_76\n      jump\t// in\n    tag_75:\n      pop\n        /* \"Campaign.sol\":1471:1476  value */\n      dup3\n        /* \"Campaign.sol\":1452:1462  newRequest */\n      dup2\n        /* \"Campaign.sol\":1452:1468  newRequest.value */\n      0x01\n      add\n        /* \"Campaign.sol\":1452:1476  newRequest.value = value */\n      dup2\n      swap1\n      sstore\n      pop\n        /* \"Campaign.sol\":1509:1518  recipient */\n      dup2\n        /* \"Campaign.sol\":1486:1496  newRequest */\n      dup2\n        /* \"Campaign.sol\":1486:1506  newRequest.recipient */\n      0x02\n      add\n      0x00\n        /* \"Campaign.sol\":1486:1518  newRequest.recipient = recipient */\n      0x0100\n      exp\n      dup2\n      sload\n      dup2\n      0xffffffffffffffffffffffffffffffffffffffff\n      mul\n      not\n      and\n      swap1\n      dup4\n      0xffffffffffffffffffffffffffffffffffffffff\n      and\n      mul\n      or\n      swap1\n      sstore\n      pop\n        /* \"Campaign.sol\":1550:1555  false */\n      0x00\n        /* \"Campaign.sol\":1528:1538  newRequest */\n      dup2\n        /* \"Campaign.sol\":1528:1547  newRequest.complete */\n      0x02\n      add\n      0x14\n        /* \"Campaign.sol\":1528:1555  newRequest.complete = false */\n      0x0100\n      exp\n      dup2\n      sload\n      dup2\n      0xff\n      mul\n      not\n      and\n      swap1\n      dup4\n      iszero\n      iszero\n      mul\n      or\n      swap1\n      sstore\n      pop\n        /* \"Campaign.sol\":1592:1593  0 */\n      0x00\n        /* \"Campaign.sol\":1565:1575  newRequest */\n      dup2\n        /* \"Campaign.sol\":1565:1589  newRequest.approvalCount */\n      0x03\n      add\n        /* \"Campaign.sol\":1565:1593  newRequest.approvalCount = 0 */\n      dup2\n      swap1\n      sstore\n      pop\n        /* \"Campaign.sol\":1342:1600  {... */\n      pop\n        /* \"Campaign.sol\":1234:1600  function createRequest(string calldata description, uint value, address payable recipient) public restricted{... */\n      pop\n      pop\n      pop\n      pop\n      jump\t// out\n        /* \"Campaign.sol\":712:743  uint public minimumContribution */\n    tag_41:\n      sload(0x02)\n      dup2\n      jump\t// out\n        /* \"Campaign.sol\":1029:1228  function contribute() public payable {... */\n    tag_45:\n        /* \"Campaign.sol\":1096:1115  minimumContribution */\n      sload(0x02)\n        /* \"Campaign.sol\":1084:1093  msg.value */\n      callvalue\n        /* \"Campaign.sol\":1084:1115  msg.value > minimumContribution */\n      gt\n        /* \"Campaign.sol\":1076:1116  require(msg.value > minimumContribution) */\n      tag_78\n      jumpi\n      0x00\n      dup1\n      revert\n    tag_78:\n        /* \"Campaign.sol\":1135:1144  approvers */\n      0x03\n        /* \"Campaign.sol\":1135:1156  approvers[msg.sender] */\n      0x00\n        /* \"Campaign.sol\":1145:1155  msg.sender */\n      caller\n        /* \"Campaign.sol\":1135:1156  approvers[msg.sender] */\n      0xffffffffffffffffffffffffffffffffffffffff\n      and\n      0xffffffffffffffffffffffffffffffffffffffff\n      and\n      dup2\n      mstore\n      0x20\n      add\n      swap1\n      dup2\n      mstore\n      0x20\n      add\n      0x00\n      keccak256\n      0x00\n      swap1\n      sload\n      swap1\n      0x0100\n      exp\n      swap1\n      div\n      0xff\n      and\n        /* \"Campaign.sol\":1134:1156  !approvers[msg.sender] */\n      iszero\n        /* \"Campaign.sol\":1126:1157  require(!approvers[msg.sender]) */\n      tag_79\n      jumpi\n      0x00\n      dup1\n      revert\n    tag_79:\n        /* \"Campaign.sol\":1191:1195  true */\n      0x01\n        /* \"Campaign.sol\":1167:1176  approvers */\n      0x03\n        /* \"Campaign.sol\":1167:1188  approvers[msg.sender] */\n      0x00\n        /* \"Campaign.sol\":1177:1187  msg.sender */\n      caller\n        /* \"Campaign.sol\":1167:1188  approvers[msg.sender] */\n      0xffffffffffffffffffffffffffffffffffffffff\n      and\n      0xffffffffffffffffffffffffffffffffffffffff\n      and\n      dup2\n      mstore\n      0x20\n      add\n      swap1\n      dup2\n      mstore\n      0x20\n      add\n      0x00\n      keccak256\n      0x00\n        /* \"Campaign.sol\":1167:1195  approvers[msg.sender] = true */\n      0x0100\n      exp\n      dup2\n      sload\n      dup2\n      0xff\n      mul\n      not\n      and\n      swap1\n      dup4\n      iszero\n      iszero\n      mul\n      or\n      swap1\n      sstore\n      pop\n        /* \"Campaign.sol\":1205:1219  approversCount */\n      0x04\n      0x00\n        /* \"Campaign.sol\":1205:1221  approversCount++ */\n      dup2\n      sload\n      dup1\n      swap3\n      swap2\n      swap1\n      tag_80\n      swap1\n      tag_81\n      jump\t// in\n    tag_80:\n      swap2\n      swap1\n      pop\n      sstore\n      pop\n        /* \"Campaign.sol\":1029:1228  function contribute() public payable {... */\n      jump\t// out\n        /* \"Campaign.sol\":1610:1882  function approveRequest(uint index) public {... */\n    tag_49:\n        /* \"Campaign.sol\":1663:1686  Request storage request */\n      0x00\n        /* \"Campaign.sol\":1689:1697  requests */\n      dup1\n        /* \"Campaign.sol\":1698:1703  index */\n      dup3\n        /* \"Campaign.sol\":1689:1704  requests[index] */\n      dup2\n      sload\n      dup2\n      lt\n      tag_83\n      jumpi\n      tag_84\n      tag_55\n      jump\t// in\n    tag_84:\n    tag_83:\n      swap1\n      0x00\n      mstore\n      keccak256(0x00, 0x20)\n      swap1\n      0x05\n      mul\n      add\n        /* \"Campaign.sol\":1663:1704  Request storage request = requests[index] */\n      swap1\n      pop\n        /* \"Campaign.sol\":1724:1733  approvers */\n      0x03\n        /* \"Campaign.sol\":1724:1745  approvers[msg.sender] */\n      0x00\n        /* \"Campaign.sol\":1734:1744  msg.sender */\n      caller\n        /* \"Campaign.sol\":1724:1745  approvers[msg.sender] */\n      0xffffffffffffffffffffffffffffffffffffffff\n      and\n      0xffffffffffffffffffffffffffffffffffffffff\n      and\n      dup2\n      mstore\n      0x20\n      add\n      swap1\n      dup2\n      mstore\n      0x20\n      add\n      0x00\n      keccak256\n      0x00\n      swap1\n      sload\n      swap1\n      0x0100\n      exp\n      swap1\n      div\n      0xff\n      and\n        /* \"Campaign.sol\":1716:1746  require(approvers[msg.sender]) */\n      tag_86\n      jumpi\n      0x00\n      dup1\n      revert\n    tag_86:\n        /* \"Campaign.sol\":1765:1772  request */\n      dup1\n        /* \"Campaign.sol\":1765:1782  request.approvals */\n      0x04\n      add\n        /* \"Campaign.sol\":1765:1794  request.approvals[msg.sender] */\n      0x00\n        /* \"Campaign.sol\":1783:1793  msg.sender */\n      caller\n        /* \"Campaign.sol\":1765:1794  request.approvals[msg.sender] */\n      0xffffffffffffffffffffffffffffffffffffffff\n      and\n      0xffffffffffffffffffffffffffffffffffffffff\n      and\n      dup2\n      mstore\n      0x20\n      add\n      swap1\n      dup2\n      mstore\n      0x20\n      add\n      0x00\n      keccak256\n      0x00\n      swap1\n      sload\n      swap1\n      0x0100\n      exp\n      swap1\n      div\n      0xff\n      and\n        /* \"Campaign.sol\":1764:1794  !request.approvals[msg.sender] */\n      iszero\n        /* \"Campaign.sol\":1756:1795  require(!request.approvals[msg.sender]) */\n      tag_87\n      jumpi\n      0x00\n      dup1\n      revert\n    tag_87:\n        /* \"Campaign.sol\":1838:1842  true */\n      0x01\n        /* \"Campaign.sol\":1806:1813  request */\n      dup2\n        /* \"Campaign.sol\":1806:1823  request.approvals */\n      0x04\n      add\n        /* \"Campaign.sol\":1806:1835  request.approvals[msg.sender] */\n      0x00\n        /* \"Campaign.sol\":1824:1834  msg.sender */\n      caller\n        /* \"Campaign.sol\":1806:1835  request.approvals[msg.sender] */\n      0xffffffffffffffffffffffffffffffffffffffff\n      and\n      0xffffffffffffffffffffffffffffffffffffffff\n      and\n      dup2\n      mstore\n      0x20\n      add\n      swap1\n      dup2\n      mstore\n      0x20\n      add\n      0x00\n      keccak256\n      0x00\n        /* \"Campaign.sol\":1806:1842  request.approvals[msg.sender] = true */\n      0x0100\n      exp\n      dup2\n      sload\n      dup2\n      0xff\n      mul\n      not\n      and\n      swap1\n      dup4\n      iszero\n      iszero\n      mul\n      or\n      swap1\n      sstore\n      pop\n        /* \"Campaign.sol\":1852:1859  request */\n      dup1\n        /* \"Campaign.sol\":1852:1873  request.approvalCount */\n      0x03\n      add\n      0x00\n        /* \"Campaign.sol\":1852:1875  request.approvalCount++ */\n      dup2\n      sload\n      dup1\n      swap3\n      swap2\n      swap1\n      tag_88\n      swap1\n      tag_81\n      jump\t// in\n    tag_88:\n      swap2\n      swap1\n      pop\n      sstore\n      pop\n        /* \"Campaign.sol\":1653:1882  {... */\n      pop\n        /* \"Campaign.sol\":1610:1882  function approveRequest(uint index) public {... */\n      pop\n      jump\t// out\n        /* \"#utility.yul\":88:205   */\n    tag_90:\n        /* \"#utility.yul\":197:198   */\n      0x00\n        /* \"#utility.yul\":194:195   */\n      dup1\n        /* \"#utility.yul\":187:199   */\n      revert\n        /* \"#utility.yul\":211:328   */\n    tag_91:\n        /* \"#utility.yul\":320:321   */\n      0x00\n        /* \"#utility.yul\":317:318   */\n      dup1\n        /* \"#utility.yul\":310:322   */\n      revert\n        /* \"#utility.yul\":334:411   */\n    tag_92:\n        /* \"#utility.yul\":371:378   */\n      0x00\n        /* \"#utility.yul\":400:405   */\n      dup2\n        /* \"#utility.yul\":389:405   */\n      swap1\n      pop\n        /* \"#utility.yul\":334:411   */\n      swap2\n      swap1\n      pop\n      jump\t// out\n        /* \"#utility.yul\":417:539   */\n    tag_93:\n        /* \"#utility.yul\":490:514   */\n      tag_142\n        /* \"#utility.yul\":508:513   */\n      dup2\n        /* \"#utility.yul\":490:514   */\n      tag_92\n      jump\t// in\n    tag_142:\n        /* \"#utility.yul\":483:488   */\n      dup2\n        /* \"#utility.yul\":480:515   */\n      eq\n        /* \"#utility.yul\":470:533   */\n      tag_143\n      jumpi\n        /* \"#utility.yul\":529:530   */\n      0x00\n        /* \"#utility.yul\":526:527   */\n      dup1\n        /* \"#utility.yul\":519:531   */\n      revert\n        /* \"#utility.yul\":470:533   */\n    tag_143:\n        /* \"#utility.yul\":417:539   */\n      pop\n      jump\t// out\n        /* \"#utility.yul\":545:684   */\n    tag_94:\n        /* \"#utility.yul\":591:596   */\n      0x00\n        /* \"#utility.yul\":629:635   */\n      dup2\n        /* \"#utility.yul\":616:636   */\n      calldataload\n        /* \"#utility.yul\":607:636   */\n      swap1\n      pop\n        /* \"#utility.yul\":645:678   */\n      tag_145\n        /* \"#utility.yul\":672:677   */\n      dup2\n        /* \"#utility.yul\":645:678   */\n      tag_93\n      jump\t// in\n    tag_145:\n        /* \"#utility.yul\":545:684   */\n      swap3\n      swap2\n      pop\n      pop\n      jump\t// out\n        /* \"#utility.yul\":690:1019   */\n    tag_14:\n        /* \"#utility.yul\":749:755   */\n      0x00\n        /* \"#utility.yul\":798:800   */\n      0x20\n        /* \"#utility.yul\":786:795   */\n      dup3\n        /* \"#utility.yul\":777:784   */\n      dup5\n        /* \"#utility.yul\":773:796   */\n      sub\n        /* \"#utility.yul\":769:801   */\n      slt\n        /* \"#utility.yul\":766:885   */\n      iszero\n      tag_147\n      jumpi\n        /* \"#utility.yul\":804:883   */\n      tag_148\n      tag_90\n      jump\t// in\n    tag_148:\n        /* \"#utility.yul\":766:885   */\n    tag_147:\n        /* \"#utility.yul\":924:925   */\n      0x00\n        /* \"#utility.yul\":949:1002   */\n      tag_149\n        /* \"#utility.yul\":994:1001   */\n      dup5\n        /* \"#utility.yul\":985:991   */\n      dup3\n        /* \"#utility.yul\":974:983   */\n      dup6\n        /* \"#utility.yul\":970:992   */\n      add\n        /* \"#utility.yul\":949:1002   */\n      tag_94\n      jump\t// in\n    tag_149:\n        /* \"#utility.yul\":939:1002   */\n      swap2\n      pop\n        /* \"#utility.yul\":895:1012   */\n      pop\n        /* \"#utility.yul\":690:1019   */\n      swap3\n      swap2\n      pop\n      pop\n      jump\t// out\n        /* \"#utility.yul\":1025:1151   */\n    tag_95:\n        /* \"#utility.yul\":1062:1069   */\n      0x00\n        /* \"#utility.yul\":1102:1144   */\n      0xffffffffffffffffffffffffffffffffffffffff\n        /* \"#utility.yul\":1095:1100   */\n      dup3\n        /* \"#utility.yul\":1091:1145   */\n      and\n        /* \"#utility.yul\":1080:1145   */\n      swap1\n      pop\n        /* \"#utility.yul\":1025:1151   */\n      swap2\n      swap1\n      pop\n      jump\t// out\n        /* \"#utility.yul\":1157:1253   */\n    tag_96:\n        /* \"#utility.yul\":1194:1201   */\n      0x00\n        /* \"#utility.yul\":1223:1247   */\n      tag_152\n        /* \"#utility.yul\":1241:1246   */\n      dup3\n        /* \"#utility.yul\":1223:1247   */\n      tag_95\n      jump\t// in\n    tag_152:\n        /* \"#utility.yul\":1212:1247   */\n      swap1\n      pop\n        /* \"#utility.yul\":1157:1253   */\n      swap2\n      swap1\n      pop\n      jump\t// out\n        /* \"#utility.yul\":1259:1381   */\n    tag_97:\n        /* \"#utility.yul\":1332:1356   */\n      tag_154\n        /* \"#utility.yul\":1350:1355   */\n      dup2\n        /* \"#utility.yul\":1332:1356   */\n      tag_96\n      jump\t// in\n    tag_154:\n        /* \"#utility.yul\":1325:1330   */\n      dup2\n        /* \"#utility.yul\":1322:1357   */\n      eq\n        /* \"#utility.yul\":1312:1375   */\n      tag_155\n      jumpi\n        /* \"#utility.yul\":1371:1372   */\n      0x00\n        /* \"#utility.yul\":1368:1369   */\n      dup1\n        /* \"#utility.yul\":1361:1373   */\n      revert\n        /* \"#utility.yul\":1312:1375   */\n    tag_155:\n        /* \"#utility.yul\":1259:1381   */\n      pop\n      jump\t// out\n        /* \"#utility.yul\":1387:1526   */\n    tag_98:\n        /* \"#utility.yul\":1433:1438   */\n      0x00\n        /* \"#utility.yul\":1471:1477   */\n      dup2\n        /* \"#utility.yul\":1458:1478   */\n      calldataload\n        /* \"#utility.yul\":1449:1478   */\n      swap1\n      pop\n        /* \"#utility.yul\":1487:1520   */\n      tag_157\n        /* \"#utility.yul\":1514:1519   */\n      dup2\n        /* \"#utility.yul\":1487:1520   */\n      tag_97\n      jump\t// in\n    tag_157:\n        /* \"#utility.yul\":1387:1526   */\n      swap3\n      swap2\n      pop\n      pop\n      jump\t// out\n        /* \"#utility.yul\":1532:1861   */\n    tag_19:\n        /* \"#utility.yul\":1591:1597   */\n      0x00\n        /* \"#utility.yul\":1640:1642   */\n      0x20\n        /* \"#utility.yul\":1628:1637   */\n      dup3\n        /* \"#utility.yul\":1619:1626   */\n      dup5\n        /* \"#utility.yul\":1615:1638   */\n      sub\n        /* \"#utility.yul\":1611:1643   */\n      slt\n        /* \"#utility.yul\":1608:1727   */\n      iszero\n      tag_159\n      jumpi\n        /* \"#utility.yul\":1646:1725   */\n      tag_160\n      tag_90\n      jump\t// in\n    tag_160:\n        /* \"#utility.yul\":1608:1727   */\n    tag_159:\n        /* \"#utility.yul\":1766:1767   */\n      0x00\n        /* \"#utility.yul\":1791:1844   */\n      tag_161\n        /* \"#utility.yul\":1836:1843   */\n      dup5\n        /* \"#utility.yul\":1827:1833   */\n      dup3\n        /* \"#utility.yul\":1816:1825   */\n      dup6\n        /* \"#utility.yul\":1812:1834   */\n      add\n        /* \"#utility.yul\":1791:1844   */\n      tag_98\n      jump\t// in\n    tag_161:\n        /* \"#utility.yul\":1781:1844   */\n      swap2\n      pop\n        /* \"#utility.yul\":1737:1854   */\n      pop\n        /* \"#utility.yul\":1532:1861   */\n      swap3\n      swap2\n      pop\n      pop\n      jump\t// out\n        /* \"#utility.yul\":1867:1957   */\n    tag_99:\n        /* \"#utility.yul\":1901:1908   */\n      0x00\n        /* \"#utility.yul\":1944:1949   */\n      dup2\n        /* \"#utility.yul\":1937:1950   */\n      iszero\n        /* \"#utility.yul\":1930:1951   */\n      iszero\n        /* \"#utility.yul\":1919:1951   */\n      swap1\n      pop\n        /* \"#utility.yul\":1867:1957   */\n      swap2\n      swap1\n      pop\n      jump\t// out\n        /* \"#utility.yul\":1963:2072   */\n    tag_100:\n        /* \"#utility.yul\":2044:2065   */\n      tag_164\n        /* \"#utility.yul\":2059:2064   */\n      dup2\n        /* \"#utility.yul\":2044:2065   */\n      tag_99\n      jump\t// in\n    tag_164:\n        /* \"#utility.yul\":2039:2042   */\n      dup3\n        /* \"#utility.yul\":2032:2066   */\n      mstore\n        /* \"#utility.yul\":1963:2072   */\n      pop\n      pop\n      jump\t// out\n        /* \"#utility.yul\":2078:2288   */\n    tag_22:\n        /* \"#utility.yul\":2165:2169   */\n      0x00\n        /* \"#utility.yul\":2203:2205   */\n      0x20\n        /* \"#utility.yul\":2192:2201   */\n      dup3\n        /* \"#utility.yul\":2188:2206   */\n      add\n        /* \"#utility.yul\":2180:2206   */\n      swap1\n      pop\n        /* \"#utility.yul\":2216:2281   */\n      tag_166\n        /* \"#utility.yul\":2278:2279   */\n      0x00\n        /* \"#utility.yul\":2267:2276   */\n      dup4\n        /* \"#utility.yul\":2263:2280   */\n      add\n        /* \"#utility.yul\":2254:2260   */\n      dup5\n        /* \"#utility.yul\":2216:2281   */\n      tag_100\n      jump\t// in\n    tag_166:\n        /* \"#utility.yul\":2078:2288   */\n      swap3\n      swap2\n      pop\n      pop\n      jump\t// out\n        /* \"#utility.yul\":2294:2412   */\n    tag_101:\n        /* \"#utility.yul\":2381:2405   */\n      tag_168\n        /* \"#utility.yul\":2399:2404   */\n      dup2\n        /* \"#utility.yul\":2381:2405   */\n      tag_96\n      jump\t// in\n    tag_168:\n        /* \"#utility.yul\":2376:2379   */\n      dup3\n        /* \"#utility.yul\":2369:2406   */\n      mstore\n        /* \"#utility.yul\":2294:2412   */\n      pop\n      pop\n      jump\t// out\n        /* \"#utility.yul\":2418:2640   */\n    tag_27:\n        /* \"#utility.yul\":2511:2515   */\n      0x00\n        /* \"#utility.yul\":2549:2551   */\n      0x20\n        /* \"#utility.yul\":2538:2547   */\n      dup3\n        /* \"#utility.yul\":2534:2552   */\n      add\n        /* \"#utility.yul\":2526:2552   */\n      swap1\n      pop\n        /* \"#utility.yul\":2562:2633   */\n      tag_170\n        /* \"#utility.yul\":2630:2631   */\n      0x00\n        /* \"#utility.yul\":2619:2628   */\n      dup4\n        /* \"#utility.yul\":2615:2632   */\n      add\n        /* \"#utility.yul\":2606:2612   */\n      dup5\n        /* \"#utility.yul\":2562:2633   */\n      tag_101\n      jump\t// in\n    tag_170:\n        /* \"#utility.yul\":2418:2640   */\n      swap3\n      swap2\n      pop\n      pop\n      jump\t// out\n        /* \"#utility.yul\":2646:2745   */\n    tag_102:\n        /* \"#utility.yul\":2698:2704   */\n      0x00\n        /* \"#utility.yul\":2732:2737   */\n      dup2\n        /* \"#utility.yul\":2726:2738   */\n      mload\n        /* \"#utility.yul\":2716:2738   */\n      swap1\n      pop\n        /* \"#utility.yul\":2646:2745   */\n      swap2\n      swap1\n      pop\n      jump\t// out\n        /* \"#utility.yul\":2751:2920   */\n    tag_103:\n        /* \"#utility.yul\":2835:2846   */\n      0x00\n        /* \"#utility.yul\":2869:2875   */\n      dup3\n        /* \"#utility.yul\":2864:2867   */\n      dup3\n        /* \"#utility.yul\":2857:2876   */\n      mstore\n        /* \"#utility.yul\":2909:2913   */\n      0x20\n        /* \"#utility.yul\":2904:2907   */\n      dup3\n        /* \"#utility.yul\":2900:2914   */\n      add\n        /* \"#utility.yul\":2885:2914   */\n      swap1\n      pop\n        /* \"#utility.yul\":2751:2920   */\n      swap3\n      swap2\n      pop\n      pop\n      jump\t// out\n        /* \"#utility.yul\":2926:3233   */\n    tag_104:\n        /* \"#utility.yul\":2994:2995   */\n      0x00\n        /* \"#utility.yul\":3004:3117   */\n    tag_174:\n        /* \"#utility.yul\":3018:3024   */\n      dup4\n        /* \"#utility.yul\":3015:3016   */\n      dup2\n        /* \"#utility.yul\":3012:3025   */\n      lt\n        /* \"#utility.yul\":3004:3117   */\n      iszero\n      tag_176\n      jumpi\n        /* \"#utility.yul\":3103:3104   */\n      dup1\n        /* \"#utility.yul\":3098:3101   */\n      dup3\n        /* \"#utility.yul\":3094:3105   */\n      add\n        /* \"#utility.yul\":3088:3106   */\n      mload\n        /* \"#utility.yul\":3084:3085   */\n      dup2\n        /* \"#utility.yul\":3079:3082   */\n      dup5\n        /* \"#utility.yul\":3075:3086   */\n      add\n        /* \"#utility.yul\":3068:3107   */\n      mstore\n        /* \"#utility.yul\":3040:3042   */\n      0x20\n        /* \"#utility.yul\":3037:3038   */\n      dup2\n        /* \"#utility.yul\":3033:3043   */\n      add\n        /* \"#utility.yul\":3028:3043   */\n      swap1\n      pop\n        /* \"#utility.yul\":3004:3117   */\n      jump(tag_174)\n    tag_176:\n        /* \"#utility.yul\":3135:3141   */\n      dup4\n        /* \"#utility.yul\":3132:3133   */\n      dup2\n        /* \"#utility.yul\":3129:3142   */\n      gt\n        /* \"#utility.yul\":3126:3227   */\n      iszero\n      tag_177\n      jumpi\n        /* \"#utility.yul\":3215:3216   */\n      0x00\n        /* \"#utility.yul\":3206:3212   */\n      dup5\n        /* \"#utility.yul\":3201:3204   */\n      dup5\n        /* \"#utility.yul\":3197:3213   */\n      add\n        /* \"#utility.yul\":3190:3217   */\n      mstore\n        /* \"#utility.yul\":3126:3227   */\n    tag_177:\n        /* \"#utility.yul\":2975:3233   */\n      pop\n        /* \"#utility.yul\":2926:3233   */\n      pop\n      pop\n      pop\n      jump\t// out\n        /* \"#utility.yul\":3239:3341   */\n    tag_105:\n        /* \"#utility.yul\":3280:3286   */\n      0x00\n        /* \"#utility.yul\":3331:3333   */\n      0x1f\n        /* \"#utility.yul\":3327:3334   */\n      not\n        /* \"#utility.yul\":3322:3324   */\n      0x1f\n        /* \"#utility.yul\":3315:3320   */\n      dup4\n        /* \"#utility.yul\":3311:3325   */\n      add\n        /* \"#utility.yul\":3307:3335   */\n      and\n        /* \"#utility.yul\":3297:3335   */\n      swap1\n      pop\n        /* \"#utility.yul\":3239:3341   */\n      swap2\n      swap1\n      pop\n      jump\t// out\n        /* \"#utility.yul\":3347:3711   */\n    tag_106:\n        /* \"#utility.yul\":3435:3438   */\n      0x00\n        /* \"#utility.yul\":3463:3502   */\n      tag_180\n        /* \"#utility.yul\":3496:3501   */\n      dup3\n        /* \"#utility.yul\":3463:3502   */\n      tag_102\n      jump\t// in\n    tag_180:\n        /* \"#utility.yul\":3518:3589   */\n      tag_181\n        /* \"#utility.yul\":3582:3588   */\n      dup2\n        /* \"#utility.yul\":3577:3580   */\n      dup6\n        /* \"#utility.yul\":3518:3589   */\n      tag_103\n      jump\t// in\n    tag_181:\n        /* \"#utility.yul\":3511:3589   */\n      swap4\n      pop\n        /* \"#utility.yul\":3598:3650   */\n      tag_182\n        /* \"#utility.yul\":3643:3649   */\n      dup2\n        /* \"#utility.yul\":3638:3641   */\n      dup6\n        /* \"#utility.yul\":3631:3635   */\n      0x20\n        /* \"#utility.yul\":3624:3629   */\n      dup7\n        /* \"#utility.yul\":3620:3636   */\n      add\n        /* \"#utility.yul\":3598:3650   */\n      tag_104\n      jump\t// in\n    tag_182:\n        /* \"#utility.yul\":3675:3704   */\n      tag_183\n        /* \"#utility.yul\":3697:3703   */\n      dup2\n        /* \"#utility.yul\":3675:3704   */\n      tag_105\n      jump\t// in\n    tag_183:\n        /* \"#utility.yul\":3670:3673   */\n      dup5\n        /* \"#utility.yul\":3666:3705   */\n      add\n        /* \"#utility.yul\":3659:3705   */\n      swap2\n      pop\n        /* \"#utility.yul\":3439:3711   */\n      pop\n        /* \"#utility.yul\":3347:3711   */\n      swap3\n      swap2\n      pop\n      pop\n      jump\t// out\n        /* \"#utility.yul\":3717:3835   */\n    tag_107:\n        /* \"#utility.yul\":3804:3828   */\n      tag_185\n        /* \"#utility.yul\":3822:3827   */\n      dup2\n        /* \"#utility.yul\":3804:3828   */\n      tag_92\n      jump\t// in\n    tag_185:\n        /* \"#utility.yul\":3799:3802   */\n      dup3\n        /* \"#utility.yul\":3792:3829   */\n      mstore\n        /* \"#utility.yul\":3717:3835   */\n      pop\n      pop\n      jump\t// out\n        /* \"#utility.yul\":3841:3945   */\n    tag_108:\n        /* \"#utility.yul\":3886:3893   */\n      0x00\n        /* \"#utility.yul\":3915:3939   */\n      tag_187\n        /* \"#utility.yul\":3933:3938   */\n      dup3\n        /* \"#utility.yul\":3915:3939   */\n      tag_95\n      jump\t// in\n    tag_187:\n        /* \"#utility.yul\":3904:3939   */\n      swap1\n      pop\n        /* \"#utility.yul\":3841:3945   */\n      swap2\n      swap1\n      pop\n      jump\t// out\n        /* \"#utility.yul\":3951:4093   */\n    tag_109:\n        /* \"#utility.yul\":4054:4086   */\n      tag_189\n        /* \"#utility.yul\":4080:4085   */\n      dup2\n        /* \"#utility.yul\":4054:4086   */\n      tag_108\n      jump\t// in\n    tag_189:\n        /* \"#utility.yul\":4049:4052   */\n      dup3\n        /* \"#utility.yul\":4042:4087   */\n      mstore\n        /* \"#utility.yul\":3951:4093   */\n      pop\n      pop\n      jump\t// out\n        /* \"#utility.yul\":4099:4874   */\n    tag_33:\n        /* \"#utility.yul\":4334:4338   */\n      0x00\n        /* \"#utility.yul\":4372:4375   */\n      0xa0\n        /* \"#utility.yul\":4361:4370   */\n      dup3\n        /* \"#utility.yul\":4357:4376   */\n      add\n        /* \"#utility.yul\":4349:4376   */\n      swap1\n      pop\n        /* \"#utility.yul\":4422:4431   */\n      dup2\n        /* \"#utility.yul\":4416:4420   */\n      dup2\n        /* \"#utility.yul\":4412:4432   */\n      sub\n        /* \"#utility.yul\":4408:4409   */\n      0x00\n        /* \"#utility.yul\":4397:4406   */\n      dup4\n        /* \"#utility.yul\":4393:4410   */\n      add\n        /* \"#utility.yul\":4386:4433   */\n      mstore\n        /* \"#utility.yul\":4450:4528   */\n      tag_191\n        /* \"#utility.yul\":4523:4527   */\n      dup2\n        /* \"#utility.yul\":4514:4520   */\n      dup9\n        /* \"#utility.yul\":4450:4528   */\n      tag_106\n      jump\t// in\n    tag_191:\n        /* \"#utility.yul\":4442:4528   */\n      swap1\n      pop\n        /* \"#utility.yul\":4538:4610   */\n      tag_192\n        /* \"#utility.yul\":4606:4608   */\n      0x20\n        /* \"#utility.yul\":4595:4604   */\n      dup4\n        /* \"#utility.yul\":4591:4609   */\n      add\n        /* \"#utility.yul\":4582:4588   */\n      dup8\n        /* \"#utility.yul\":4538:4610   */\n      tag_107\n      jump\t// in\n    tag_192:\n        /* \"#utility.yul\":4620:4708   */\n      tag_193\n        /* \"#utility.yul\":4704:4706   */\n      0x40\n        /* \"#utility.yul\":4693:4702   */\n      dup4\n        /* \"#utility.yul\":4689:4707   */\n      add\n        /* \"#utility.yul\":4680:4686   */\n      dup7\n        /* \"#utility.yul\":4620:4708   */\n      tag_109\n      jump\t// in\n    tag_193:\n        /* \"#utility.yul\":4718:4784   */\n      tag_194\n        /* \"#utility.yul\":4780:4782   */\n      0x60\n        /* \"#utility.yul\":4769:4778   */\n      dup4\n        /* \"#utility.yul\":4765:4783   */\n      add\n        /* \"#utility.yul\":4756:4762   */\n      dup6\n        /* \"#utility.yul\":4718:4784   */\n      tag_100\n      jump\t// in\n    tag_194:\n        /* \"#utility.yul\":4794:4867   */\n      tag_195\n        /* \"#utility.yul\":4862:4865   */\n      0x80\n        /* \"#utility.yul\":4851:4860   */\n      dup4\n        /* \"#utility.yul\":4847:4866   */\n      add\n        /* \"#utility.yul\":4838:4844   */\n      dup5\n        /* \"#utility.yul\":4794:4867   */\n      tag_107\n      jump\t// in\n    tag_195:\n        /* \"#utility.yul\":4099:4874   */\n      swap7\n      swap6\n      pop\n      pop\n      pop\n      pop\n      pop\n      pop\n      jump\t// out\n        /* \"#utility.yul\":4880:4997   */\n    tag_110:\n        /* \"#utility.yul\":4989:4990   */\n      0x00\n        /* \"#utility.yul\":4986:4987   */\n      dup1\n        /* \"#utility.yul\":4979:4991   */\n      revert\n        /* \"#utility.yul\":5003:5120   */\n    tag_111:\n        /* \"#utility.yul\":5112:5113   */\n      0x00\n        /* \"#utility.yul\":5109:5110   */\n      dup1\n        /* \"#utility.yul\":5102:5114   */\n      revert\n        /* \"#utility.yul\":5126:5243   */\n    tag_112:\n        /* \"#utility.yul\":5235:5236   */\n      0x00\n        /* \"#utility.yul\":5232:5233   */\n      dup1\n        /* \"#utility.yul\":5225:5237   */\n      revert\n        /* \"#utility.yul\":5263:5816   */\n    tag_113:\n        /* \"#utility.yul\":5321:5329   */\n      0x00\n        /* \"#utility.yul\":5331:5337   */\n      dup1\n        /* \"#utility.yul\":5381:5384   */\n      dup4\n        /* \"#utility.yul\":5374:5378   */\n      0x1f\n        /* \"#utility.yul\":5366:5372   */\n      dup5\n        /* \"#utility.yul\":5362:5379   */\n      add\n        /* \"#utility.yul\":5358:5385   */\n      slt\n        /* \"#utility.yul\":5348:5470   */\n      tag_200\n      jumpi\n        /* \"#utility.yul\":5389:5468   */\n      tag_201\n      tag_110\n      jump\t// in\n    tag_201:\n        /* \"#utility.yul\":5348:5470   */\n    tag_200:\n        /* \"#utility.yul\":5502:5508   */\n      dup3\n        /* \"#utility.yul\":5489:5509   */\n      calldataload\n        /* \"#utility.yul\":5479:5509   */\n      swap1\n      pop\n        /* \"#utility.yul\":5532:5550   */\n      0xffffffffffffffff\n        /* \"#utility.yul\":5524:5530   */\n      dup2\n        /* \"#utility.yul\":5521:5551   */\n      gt\n        /* \"#utility.yul\":5518:5635   */\n      iszero\n      tag_202\n      jumpi\n        /* \"#utility.yul\":5554:5633   */\n      tag_203\n      tag_111\n      jump\t// in\n    tag_203:\n        /* \"#utility.yul\":5518:5635   */\n    tag_202:\n        /* \"#utility.yul\":5668:5672   */\n      0x20\n        /* \"#utility.yul\":5660:5666   */\n      dup4\n        /* \"#utility.yul\":5656:5673   */\n      add\n        /* \"#utility.yul\":5644:5673   */\n      swap2\n      pop\n        /* \"#utility.yul\":5722:5725   */\n      dup4\n        /* \"#utility.yul\":5714:5718   */\n      0x01\n        /* \"#utility.yul\":5706:5712   */\n      dup3\n        /* \"#utility.yul\":5702:5719   */\n      mul\n        /* \"#utility.yul\":5692:5700   */\n      dup4\n        /* \"#utility.yul\":5688:5720   */\n      add\n        /* \"#utility.yul\":5685:5726   */\n      gt\n        /* \"#utility.yul\":5682:5810   */\n      iszero\n      tag_204\n      jumpi\n        /* \"#utility.yul\":5729:5808   */\n      tag_205\n      tag_112\n      jump\t// in\n    tag_205:\n        /* \"#utility.yul\":5682:5810   */\n    tag_204:\n        /* \"#utility.yul\":5263:5816   */\n      swap3\n      pop\n      swap3\n      swap1\n      pop\n      jump\t// out\n        /* \"#utility.yul\":5822:5960   */\n    tag_114:\n        /* \"#utility.yul\":5903:5935   */\n      tag_207\n        /* \"#utility.yul\":5929:5934   */\n      dup2\n        /* \"#utility.yul\":5903:5935   */\n      tag_108\n      jump\t// in\n    tag_207:\n        /* \"#utility.yul\":5896:5901   */\n      dup2\n        /* \"#utility.yul\":5893:5936   */\n      eq\n        /* \"#utility.yul\":5883:5954   */\n      tag_208\n      jumpi\n        /* \"#utility.yul\":5950:5951   */\n      0x00\n        /* \"#utility.yul\":5947:5948   */\n      dup1\n        /* \"#utility.yul\":5940:5952   */\n      revert\n        /* \"#utility.yul\":5883:5954   */\n    tag_208:\n        /* \"#utility.yul\":5822:5960   */\n      pop\n      jump\t// out\n        /* \"#utility.yul\":5966:6121   */\n    tag_115:\n        /* \"#utility.yul\":6020:6025   */\n      0x00\n        /* \"#utility.yul\":6058:6064   */\n      dup2\n        /* \"#utility.yul\":6045:6065   */\n      calldataload\n        /* \"#utility.yul\":6036:6065   */\n      swap1\n      pop\n        /* \"#utility.yul\":6074:6115   */\n      tag_210\n        /* \"#utility.yul\":6109:6114   */\n      dup2\n        /* \"#utility.yul\":6074:6115   */\n      tag_114\n      jump\t// in\n    tag_210:\n        /* \"#utility.yul\":5966:6121   */\n      swap3\n      swap2\n      pop\n      pop\n      jump\t// out\n        /* \"#utility.yul\":6127:6962   */\n    tag_37:\n        /* \"#utility.yul\":6224:6230   */\n      0x00\n        /* \"#utility.yul\":6232:6238   */\n      dup1\n        /* \"#utility.yul\":6240:6246   */\n      0x00\n        /* \"#utility.yul\":6248:6254   */\n      dup1\n        /* \"#utility.yul\":6297:6299   */\n      0x60\n        /* \"#utility.yul\":6285:6294   */\n      dup6\n        /* \"#utility.yul\":6276:6283   */\n      dup8\n        /* \"#utility.yul\":6272:6295   */\n      sub\n        /* \"#utility.yul\":6268:6300   */\n      slt\n        /* \"#utility.yul\":6265:6384   */\n      iszero\n      tag_212\n      jumpi\n        /* \"#utility.yul\":6303:6382   */\n      tag_213\n      tag_90\n      jump\t// in\n    tag_213:\n        /* \"#utility.yul\":6265:6384   */\n    tag_212:\n        /* \"#utility.yul\":6451:6452   */\n      0x00\n        /* \"#utility.yul\":6440:6449   */\n      dup6\n        /* \"#utility.yul\":6436:6453   */\n      add\n        /* \"#utility.yul\":6423:6454   */\n      calldataload\n        /* \"#utility.yul\":6481:6499   */\n      0xffffffffffffffff\n        /* \"#utility.yul\":6473:6479   */\n      dup2\n        /* \"#utility.yul\":6470:6500   */\n      gt\n        /* \"#utility.yul\":6467:6584   */\n      iszero\n      tag_214\n      jumpi\n        /* \"#utility.yul\":6503:6582   */\n      tag_215\n      tag_91\n      jump\t// in\n    tag_215:\n        /* \"#utility.yul\":6467:6584   */\n    tag_214:\n        /* \"#utility.yul\":6616:6681   */\n      tag_216\n        /* \"#utility.yul\":6673:6680   */\n      dup8\n        /* \"#utility.yul\":6664:6670   */\n      dup3\n        /* \"#utility.yul\":6653:6662   */\n      dup9\n        /* \"#utility.yul\":6649:6671   */\n      add\n        /* \"#utility.yul\":6616:6681   */\n      tag_113\n      jump\t// in\n    tag_216:\n        /* \"#utility.yul\":6598:6681   */\n      swap5\n      pop\n      swap5\n      pop\n        /* \"#utility.yul\":6394:6691   */\n      pop\n        /* \"#utility.yul\":6730:6732   */\n      0x20\n        /* \"#utility.yul\":6756:6809   */\n      tag_217\n        /* \"#utility.yul\":6801:6808   */\n      dup8\n        /* \"#utility.yul\":6792:6798   */\n      dup3\n        /* \"#utility.yul\":6781:6790   */\n      dup9\n        /* \"#utility.yul\":6777:6799   */\n      add\n        /* \"#utility.yul\":6756:6809   */\n      tag_94\n      jump\t// in\n    tag_217:\n        /* \"#utility.yul\":6746:6809   */\n      swap3\n      pop\n        /* \"#utility.yul\":6701:6819   */\n      pop\n        /* \"#utility.yul\":6858:6860   */\n      0x40\n        /* \"#utility.yul\":6884:6945   */\n      tag_218\n        /* \"#utility.yul\":6937:6944   */\n      dup8\n        /* \"#utility.yul\":6928:6934   */\n      dup3\n        /* \"#utility.yul\":6917:6926   */\n      dup9\n        /* \"#utility.yul\":6913:6935   */\n      add\n        /* \"#utility.yul\":6884:6945   */\n      tag_115\n      jump\t// in\n    tag_218:\n        /* \"#utility.yul\":6874:6945   */\n      swap2\n      pop\n        /* \"#utility.yul\":6829:6955   */\n      pop\n        /* \"#utility.yul\":6127:6962   */\n      swap3\n      swap6\n      swap2\n      swap5\n      pop\n      swap3\n      pop\n      jump\t// out\n        /* \"#utility.yul\":6968:7190   */\n    tag_43:\n        /* \"#utility.yul\":7061:7065   */\n      0x00\n        /* \"#utility.yul\":7099:7101   */\n      0x20\n        /* \"#utility.yul\":7088:7097   */\n      dup3\n        /* \"#utility.yul\":7084:7102   */\n      add\n        /* \"#utility.yul\":7076:7102   */\n      swap1\n      pop\n        /* \"#utility.yul\":7112:7183   */\n      tag_220\n        /* \"#utility.yul\":7180:7181   */\n      0x00\n        /* \"#utility.yul\":7169:7178   */\n      dup4\n        /* \"#utility.yul\":7165:7182   */\n      add\n        /* \"#utility.yul\":7156:7162   */\n      dup5\n        /* \"#utility.yul\":7112:7183   */\n      tag_107\n      jump\t// in\n    tag_220:\n        /* \"#utility.yul\":6968:7190   */\n      swap3\n      swap2\n      pop\n      pop\n      jump\t// out\n        /* \"#utility.yul\":7196:7376   */\n    tag_55:\n        /* \"#utility.yul\":7244:7321   */\n      0x4e487b7100000000000000000000000000000000000000000000000000000000\n        /* \"#utility.yul\":7241:7242   */\n      0x00\n        /* \"#utility.yul\":7234:7322   */\n      mstore\n        /* \"#utility.yul\":7341:7345   */\n      0x32\n        /* \"#utility.yul\":7338:7339   */\n      0x04\n        /* \"#utility.yul\":7331:7346   */\n      mstore\n        /* \"#utility.yul\":7365:7369   */\n      0x24\n        /* \"#utility.yul\":7362:7363   */\n      0x00\n        /* \"#utility.yul\":7355:7370   */\n      revert\n        /* \"#utility.yul\":7382:7562   */\n    tag_116:\n        /* \"#utility.yul\":7430:7507   */\n      0x4e487b7100000000000000000000000000000000000000000000000000000000\n        /* \"#utility.yul\":7427:7428   */\n      0x00\n        /* \"#utility.yul\":7420:7508   */\n      mstore\n        /* \"#utility.yul\":7527:7531   */\n      0x12\n        /* \"#utility.yul\":7524:7525   */\n      0x04\n        /* \"#utility.yul\":7517:7532   */\n      mstore\n        /* \"#utility.yul\":7551:7555   */\n      0x24\n        /* \"#utility.yul\":7548:7549   */\n      0x00\n        /* \"#utility.yul\":7541:7556   */\n      revert\n        /* \"#utility.yul\":7568:7748   */\n    tag_117:\n        /* \"#utility.yul\":7616:7693   */\n      0x4e487b7100000000000000000000000000000000000000000000000000000000\n        /* \"#utility.yul\":7613:7614   */\n      0x00\n        /* \"#utility.yul\":7606:7694   */\n      mstore\n        /* \"#utility.yul\":7713:7717   */\n      0x11\n        /* \"#utility.yul\":7710:7711   */\n      0x04\n        /* \"#utility.yul\":7703:7718   */\n      mstore\n        /* \"#utility.yul\":7737:7741   */\n      0x24\n        /* \"#utility.yul\":7734:7735   */\n      0x00\n        /* \"#utility.yul\":7727:7742   */\n      revert\n        /* \"#utility.yul\":7754:7939   */\n    tag_58:\n        /* \"#utility.yul\":7794:7795   */\n      0x00\n        /* \"#utility.yul\":7811:7831   */\n      tag_225\n        /* \"#utility.yul\":7829:7830   */\n      dup3\n        /* \"#utility.yul\":7811:7831   */\n      tag_92\n      jump\t// in\n    tag_225:\n        /* \"#utility.yul\":7806:7831   */\n      swap2\n      pop\n        /* \"#utility.yul\":7845:7865   */\n      tag_226\n        /* \"#utility.yul\":7863:7864   */\n      dup4\n        /* \"#utility.yul\":7845:7865   */\n      tag_92\n      jump\t// in\n    tag_226:\n        /* \"#utility.yul\":7840:7865   */\n      swap3\n      pop\n        /* \"#utility.yul\":7884:7885   */\n      dup3\n        /* \"#utility.yul\":7874:7909   */\n      tag_227\n      jumpi\n        /* \"#utility.yul\":7889:7907   */\n      tag_228\n      tag_116\n      jump\t// in\n    tag_228:\n        /* \"#utility.yul\":7874:7909   */\n    tag_227:\n        /* \"#utility.yul\":7931:7932   */\n      dup3\n        /* \"#utility.yul\":7928:7929   */\n      dup3\n        /* \"#utility.yul\":7924:7933   */\n      div\n        /* \"#utility.yul\":7919:7933   */\n      swap1\n      pop\n        /* \"#utility.yul\":7754:7939   */\n      swap3\n      swap2\n      pop\n      pop\n      jump\t// out\n        /* \"#utility.yul\":7945:8125   */\n    tag_118:\n        /* \"#utility.yul\":7993:8070   */\n      0x4e487b7100000000000000000000000000000000000000000000000000000000\n        /* \"#utility.yul\":7990:7991   */\n      0x00\n        /* \"#utility.yul\":7983:8071   */\n      mstore\n        /* \"#utility.yul\":8090:8094   */\n      0x22\n        /* \"#utility.yul\":8087:8088   */\n      0x04\n        /* \"#utility.yul\":8080:8095   */\n      mstore\n        /* \"#utility.yul\":8114:8118   */\n      0x24\n        /* \"#utility.yul\":8111:8112   */\n      0x00\n        /* \"#utility.yul\":8104:8119   */\n      revert\n        /* \"#utility.yul\":8131:8451   */\n    tag_66:\n        /* \"#utility.yul\":8175:8181   */\n      0x00\n        /* \"#utility.yul\":8212:8213   */\n      0x02\n        /* \"#utility.yul\":8206:8210   */\n      dup3\n        /* \"#utility.yul\":8202:8214   */\n      div\n        /* \"#utility.yul\":8192:8214   */\n      swap1\n      pop\n        /* \"#utility.yul\":8259:8260   */\n      0x01\n        /* \"#utility.yul\":8253:8257   */\n      dup3\n        /* \"#utility.yul\":8249:8261   */\n      and\n        /* \"#utility.yul\":8280:8298   */\n      dup1\n        /* \"#utility.yul\":8270:8351   */\n      tag_231\n      jumpi\n        /* \"#utility.yul\":8336:8340   */\n      0x7f\n        /* \"#utility.yul\":8328:8334   */\n      dup3\n        /* \"#utility.yul\":8324:8341   */\n      and\n        /* \"#utility.yul\":8314:8341   */\n      swap2\n      pop\n        /* \"#utility.yul\":8270:8351   */\n    tag_231:\n        /* \"#utility.yul\":8398:8400   */\n      0x20\n        /* \"#utility.yul\":8390:8396   */\n      dup3\n        /* \"#utility.yul\":8387:8401   */\n      lt\n        /* \"#utility.yul\":8367:8385   */\n      dup2\n        /* \"#utility.yul\":8364:8402   */\n      sub\n        /* \"#utility.yul\":8361:8445   */\n      tag_232\n      jumpi\n        /* \"#utility.yul\":8417:8435   */\n      tag_233\n      tag_118\n      jump\t// in\n    tag_233:\n        /* \"#utility.yul\":8361:8445   */\n    tag_232:\n        /* \"#utility.yul\":8182:8451   */\n      pop\n        /* \"#utility.yul\":8131:8451   */\n      swap2\n      swap1\n      pop\n      jump\t// out\n        /* \"#utility.yul\":8457:8554   */\n    tag_119:\n        /* \"#utility.yul\":8516:8522   */\n      0x00\n        /* \"#utility.yul\":8544:8547   */\n      dup3\n        /* \"#utility.yul\":8534:8547   */\n      swap1\n      pop\n        /* \"#utility.yul\":8457:8554   */\n      swap3\n      swap2\n      pop\n      pop\n      jump\t// out\n        /* \"#utility.yul\":8560:8740   */\n    tag_120:\n        /* \"#utility.yul\":8608:8685   */\n      0x4e487b7100000000000000000000000000000000000000000000000000000000\n        /* \"#utility.yul\":8605:8606   */\n      0x00\n        /* \"#utility.yul\":8598:8686   */\n      mstore\n        /* \"#utility.yul\":8705:8709   */\n      0x41\n        /* \"#utility.yul\":8702:8703   */\n      0x04\n        /* \"#utility.yul\":8695:8710   */\n      mstore\n        /* \"#utility.yul\":8729:8733   */\n      0x24\n        /* \"#utility.yul\":8726:8727   */\n      0x00\n        /* \"#utility.yul\":8719:8734   */\n      revert\n        /* \"#utility.yul\":8746:8887   */\n    tag_121:\n        /* \"#utility.yul\":8795:8799   */\n      0x00\n        /* \"#utility.yul\":8818:8821   */\n      dup2\n        /* \"#utility.yul\":8810:8821   */\n      swap1\n      pop\n        /* \"#utility.yul\":8841:8844   */\n      dup2\n        /* \"#utility.yul\":8838:8839   */\n      0x00\n        /* \"#utility.yul\":8831:8845   */\n      mstore\n        /* \"#utility.yul\":8875:8879   */\n      0x20\n        /* \"#utility.yul\":8872:8873   */\n      0x00\n        /* \"#utility.yul\":8862:8880   */\n      keccak256\n        /* \"#utility.yul\":8854:8880   */\n      swap1\n      pop\n        /* \"#utility.yul\":8746:8887   */\n      swap2\n      swap1\n      pop\n      jump\t// out\n        /* \"#utility.yul\":8893:8986   */\n    tag_122:\n        /* \"#utility.yul\":8930:8936   */\n      0x00\n        /* \"#utility.yul\":8977:8979   */\n      0x20\n        /* \"#utility.yul\":8972:8974   */\n      0x1f\n        /* \"#utility.yul\":8965:8970   */\n      dup4\n        /* \"#utility.yul\":8961:8975   */\n      add\n        /* \"#utility.yul\":8957:8980   */\n      div\n        /* \"#utility.yul\":8947:8980   */\n      swap1\n      pop\n        /* \"#utility.yul\":8893:8986   */\n      swap2\n      swap1\n      pop\n      jump\t// out\n        /* \"#utility.yul\":8992:9099   */\n    tag_123:\n        /* \"#utility.yul\":9036:9044   */\n      0x00\n        /* \"#utility.yul\":9086:9091   */\n      dup3\n        /* \"#utility.yul\":9080:9084   */\n      dup3\n        /* \"#utility.yul\":9076:9092   */\n      shl\n        /* \"#utility.yul\":9055:9092   */\n      swap1\n      pop\n        /* \"#utility.yul\":8992:9099   */\n      swap3\n      swap2\n      pop\n      pop\n      jump\t// out\n        /* \"#utility.yul\":9105:9498   */\n    tag_124:\n        /* \"#utility.yul\":9174:9180   */\n      0x00\n        /* \"#utility.yul\":9224:9225   */\n      0x08\n        /* \"#utility.yul\":9212:9222   */\n      dup4\n        /* \"#utility.yul\":9208:9226   */\n      mul\n        /* \"#utility.yul\":9247:9344   */\n      tag_240\n        /* \"#utility.yul\":9277:9343   */\n      0xffffffffffffffffffffffffffffffffffffffffffffffffffffffffffffffff\n        /* \"#utility.yul\":9266:9275   */\n      dup3\n        /* \"#utility.yul\":9247:9344   */\n      tag_123\n      jump\t// in\n    tag_240:\n        /* \"#utility.yul\":9365:9404   */\n      tag_241\n        /* \"#utility.yul\":9395:9403   */\n      dup7\n        /* \"#utility.yul\":9384:9393   */\n      dup4\n        /* \"#utility.yul\":9365:9404   */\n      tag_123\n      jump\t// in\n    tag_241:\n        /* \"#utility.yul\":9353:9404   */\n      swap6\n      pop\n        /* \"#utility.yul\":9437:9441   */\n      dup1\n        /* \"#utility.yul\":9433:9442   */\n      not\n        /* \"#utility.yul\":9426:9431   */\n      dup5\n        /* \"#utility.yul\":9422:9443   */\n      and\n        /* \"#utility.yul\":9413:9443   */\n      swap4\n      pop\n        /* \"#utility.yul\":9486:9490   */\n      dup1\n        /* \"#utility.yul\":9476:9484   */\n      dup7\n        /* \"#utility.yul\":9472:9491   */\n      and\n        /* \"#utility.yul\":9465:9470   */\n      dup5\n        /* \"#utility.yul\":9462:9492   */\n      or\n        /* \"#utility.yul\":9452:9492   */\n      swap3\n      pop\n        /* \"#utility.yul\":9181:9498   */\n      pop\n      pop\n        /* \"#utility.yul\":9105:9498   */\n      swap4\n      swap3\n      pop\n      pop\n      pop\n      jump\t// out\n        /* \"#utility.yul\":9504:9564   */\n    tag_125:\n        /* \"#utility.yul\":9532:9535   */\n      0x00\n        /* \"#utility.yul\":9553:9558   */\n      dup2\n        /* \"#utility.yul\":9546:9558   */\n      swap1\n      pop\n        /* \"#utility.yul\":9504:9564   */\n      swap2\n      swap1\n      pop\n      jump\t// out\n        /* \"#utility.yul\":9570:9712   */\n    tag_126:\n        /* \"#utility.yul\":9620:9629   */\n      0x00\n        /* \"#utility.yul\":9653:9706   */\n      tag_244\n        /* \"#utility.yul\":9671:9705   */\n      tag_245\n        /* \"#utility.yul\":9680:9704   */\n      tag_246\n        /* \"#utility.yul\":9698:9703   */\n      dup5\n        /* \"#utility.yul\":9680:9704   */\n      tag_92\n      jump\t// in\n    tag_246:\n        /* \"#utility.yul\":9671:9705   */\n      tag_125\n      jump\t// in\n    tag_245:\n        /* \"#utility.yul\":9653:9706   */\n      tag_92\n      jump\t// in\n    tag_244:\n        /* \"#utility.yul\":9640:9706   */\n      swap1\n      pop\n        /* \"#utility.yul\":9570:9712   */\n      swap2\n      swap1\n      pop\n      jump\t// out\n        /* \"#utility.yul\":9718:9793   */\n    tag_127:\n        /* \"#utility.yul\":9761:9764   */\n      0x00\n        /* \"#utility.yul\":9782:9787   */\n      dup2\n        /* \"#utility.yul\":9775:9787   */\n      swap1\n      pop\n        /* \"#utility.yul\":9718:9793   */\n      swap2\n      swap1\n      pop\n      jump\t// out\n        /* \"#utility.yul\":9799:10068   */\n    tag_128:\n        /* \"#utility.yul\":9909:9948   */\n      tag_249\n        /* \"#utility.yul\":9940:9947   */\n      dup4\n        /* \"#utility.yul\":9909:9948   */\n      tag_126\n      jump\t// in\n    tag_249:\n        /* \"#utility.yul\":9970:10061   */\n      tag_250\n        /* \"#utility.yul\":10019:10060   */\n      tag_251\n        /* \"#utility.yul\":10043:10059   */\n      dup3\n        /* \"#utility.yul\":10019:10060   */\n      tag_127\n      jump\t// in\n    tag_251:\n        /* \"#utility.yul\":10011:10017   */\n      dup5\n        /* \"#utility.yul\":10004:10008   */\n      dup5\n        /* \"#utility.yul\":9998:10009   */\n      sload\n        /* \"#utility.yul\":9970:10061   */\n      tag_124\n      jump\t// in\n    tag_250:\n        /* \"#utility.yul\":9964:9968   */\n      dup3\n        /* \"#utility.yul\":9957:10062   */\n      sstore\n        /* \"#utility.yul\":9875:10068   */\n      pop\n        /* \"#utility.yul\":9799:10068   */\n      pop\n      pop\n      pop\n      jump\t// out\n        /* \"#utility.yul\":10074:10147   */\n    tag_129:\n        /* \"#utility.yul\":10119:10122   */\n      0x00\n        /* \"#utility.yul\":10074:10147   */\n      swap1\n      jump\t// out\n        /* \"#utility.yul\":10153:10342   */\n    tag_130:\n        /* \"#utility.yul\":10230:10262   */\n      tag_254\n      tag_129\n      jump\t// in\n    tag_254:\n        /* \"#utility.yul\":10271:10336   */\n      tag_255\n        /* \"#utility.yul\":10329:10335   */\n      dup2\n        /* \"#utility.yul\":10321:10327   */\n      dup5\n        /* \"#utility.yul\":10315:10319   */\n      dup5\n        /* \"#utility.yul\":10271:10336   */\n      tag_128\n      jump\t// in\n    tag_255:\n        /* \"#utility.yul\":10206:10342   */\n      pop\n        /* \"#utility.yul\":10153:10342   */\n      pop\n      pop\n      jump\t// out\n        /* \"#utility.yul\":10348:10534   */\n    tag_131:\n        /* \"#utility.yul\":10408:10528   */\n    tag_257:\n        /* \"#utility.yul\":10425:10428   */\n      dup2\n        /* \"#utility.yul\":10418:10423   */\n      dup2\n        /* \"#utility.yul\":10415:10429   */\n      lt\n        /* \"#utility.yul\":10408:10528   */\n      iszero\n      tag_259\n      jumpi\n        /* \"#utility.yul\":10479:10518   */\n      tag_260\n        /* \"#utility.yul\":10516:10517   */\n      0x00\n        /* \"#utility.yul\":10509:10514   */\n      dup3\n        /* \"#utility.yul\":10479:10518   */\n      tag_130\n      jump\t// in\n    tag_260:\n        /* \"#utility.yul\":10452:10453   */\n      0x01\n        /* \"#utility.yul\":10445:10450   */\n      dup2\n        /* \"#utility.yul\":10441:10454   */\n      add\n        /* \"#utility.yul\":10432:10454   */\n      swap1\n      pop\n        /* \"#utility.yul\":10408:10528   */\n      jump(tag_257)\n    tag_259:\n        /* \"#utility.yul\":10348:10534   */\n      pop\n      pop\n      jump\t// out\n        /* \"#utility.yul\":10540:11083   */\n    tag_132:\n        /* \"#utility.yul\":10641:10643   */\n      0x1f\n        /* \"#utility.yul\":10636:10639   */\n      dup3\n        /* \"#utility.yul\":10633:10644   */\n      gt\n        /* \"#utility.yul\":10630:11076   */\n      iszero\n      tag_262\n      jumpi\n        /* \"#utility.yul\":10675:10713   */\n      tag_263\n        /* \"#utility.yul\":10707:10712   */\n      dup2\n        /* \"#utility.yul\":10675:10713   */\n      tag_121\n      jump\t// in\n    tag_263:\n        /* \"#utility.yul\":10759:10788   */\n      tag_264\n        /* \"#utility.yul\":10777:10787   */\n      dup5\n        /* \"#utility.yul\":10759:10788   */\n      tag_122\n      jump\t// in\n    tag_264:\n        /* \"#utility.yul\":10749:10757   */\n      dup2\n        /* \"#utility.yul\":10745:10789   */\n      add\n        /* \"#utility.yul\":10942:10944   */\n      0x20\n        /* \"#utility.yul\":10930:10940   */\n      dup6\n        /* \"#utility.yul\":10927:10945   */\n      lt\n        /* \"#utility.yul\":10924:10973   */\n      iszero\n      tag_265\n      jumpi\n        /* \"#utility.yul\":10963:10971   */\n      dup2\n        /* \"#utility.yul\":10948:10971   */\n      swap1\n      pop\n        /* \"#utility.yul\":10924:10973   */\n    tag_265:\n        /* \"#utility.yul\":10986:11066   */\n      tag_266\n        /* \"#utility.yul\":11042:11064   */\n      tag_267\n        /* \"#utility.yul\":11060:11063   */\n      dup6\n        /* \"#utility.yul\":11042:11064   */\n      tag_122\n      jump\t// in\n    tag_267:\n        /* \"#utility.yul\":11032:11040   */\n      dup4\n        /* \"#utility.yul\":11028:11065   */\n      add\n        /* \"#utility.yul\":11015:11026   */\n      dup3\n        /* \"#utility.yul\":10986:11066   */\n      tag_131\n      jump\t// in\n    tag_266:\n        /* \"#utility.yul\":10645:11076   */\n      pop\n      pop\n        /* \"#utility.yul\":10630:11076   */\n    tag_262:\n        /* \"#utility.yul\":10540:11083   */\n      pop\n      pop\n      pop\n      jump\t// out\n        /* \"#utility.yul\":11089:11206   */\n    tag_133:\n        /* \"#utility.yul\":11143:11151   */\n      0x00\n        /* \"#utility.yul\":11193:11198   */\n      dup3\n        /* \"#utility.yul\":11187:11191   */\n      dup3\n        /* \"#utility.yul\":11183:11199   */\n      shr\n        /* \"#utility.yul\":11162:11199   */\n      swap1\n      pop\n        /* \"#utility.yul\":11089:11206   */\n      swap3\n      swap2\n      pop\n      pop\n      jump\t// out\n        /* \"#utility.yul\":11212:11381   */\n    tag_134:\n        /* \"#utility.yul\":11256:11262   */\n      0x00\n        /* \"#utility.yul\":11289:11340   */\n      tag_270\n        /* \"#utility.yul\":11337:11338   */\n      0x00\n        /* \"#utility.yul\":11333:11339   */\n      not\n        /* \"#utility.yul\":11325:11330   */\n      dup5\n        /* \"#utility.yul\":11322:11323   */\n      0x08\n        /* \"#utility.yul\":11318:11331   */\n      mul\n        /* \"#utility.yul\":11289:11340   */\n      tag_133\n      jump\t// in\n    tag_270:\n        /* \"#utility.yul\":11285:11341   */\n      not\n        /* \"#utility.yul\":11370:11374   */\n      dup1\n        /* \"#utility.yul\":11364:11368   */\n      dup4\n        /* \"#utility.yul\":11360:11375   */\n      and\n        /* \"#utility.yul\":11350:11375   */\n      swap2\n      pop\n        /* \"#utility.yul\":11263:11381   */\n      pop\n        /* \"#utility.yul\":11212:11381   */\n      swap3\n      swap2\n      pop\n      pop\n      jump\t// out\n        /* \"#utility.yul\":11386:11681   */\n    tag_135:\n        /* \"#utility.yul\":11462:11466   */\n      0x00\n        /* \"#utility.yul\":11608:11637   */\n      tag_272\n        /* \"#utility.yul\":11633:11636   */\n      dup4\n        /* \"#utility.yul\":11627:11631   */\n      dup4\n        /* \"#utility.yul\":11608:11637   */\n      tag_134\n      jump\t// in\n    tag_272:\n        /* \"#utility.yul\":11600:11637   */\n      swap2\n      pop\n        /* \"#utility.yul\":11670:11673   */\n      dup3\n        /* \"#utility.yul\":11667:11668   */\n      0x02\n        /* \"#utility.yul\":11663:11674   */\n      mul\n        /* \"#utility.yul\":11657:11661   */\n      dup3\n        /* \"#utility.yul\":11654:11675   */\n      or\n        /* \"#utility.yul\":11646:11675   */\n      swap1\n      pop\n        /* \"#utility.yul\":11386:11681   */\n      swap3\n      swap2\n      pop\n      pop\n      jump\t// out\n        /* \"#utility.yul\":11686:13089   */\n    tag_76:\n        /* \"#utility.yul\":11810:11854   */\n      tag_274\n        /* \"#utility.yul\":11850:11853   */\n      dup4\n        /* \"#utility.yul\":11845:11848   */\n      dup4\n        /* \"#utility.yul\":11810:11854   */\n      tag_119\n      jump\t// in\n    tag_274:\n        /* \"#utility.yul\":11919:11937   */\n      0xffffffffffffffff\n        /* \"#utility.yul\":11911:11917   */\n      dup2\n        /* \"#utility.yul\":11908:11938   */\n      gt\n        /* \"#utility.yul\":11905:11961   */\n      iszero\n      tag_275\n      jumpi\n        /* \"#utility.yul\":11941:11959   */\n      tag_276\n      tag_120\n      jump\t// in\n    tag_276:\n        /* \"#utility.yul\":11905:11961   */\n    tag_275:\n        /* \"#utility.yul\":11985:12023   */\n      tag_277\n        /* \"#utility.yul\":12017:12021   */\n      dup3\n        /* \"#utility.yul\":12011:12022   */\n      sload\n        /* \"#utility.yul\":11985:12023   */\n      tag_66\n      jump\t// in\n    tag_277:\n        /* \"#utility.yul\":12070:12137   */\n      tag_278\n        /* \"#utility.yul\":12130:12136   */\n      dup3\n        /* \"#utility.yul\":12122:12128   */\n      dup3\n        /* \"#utility.yul\":12116:12120   */\n      dup6\n        /* \"#utility.yul\":12070:12137   */\n      tag_132\n      jump\t// in\n    tag_278:\n        /* \"#utility.yul\":12164:12165   */\n      0x00\n        /* \"#utility.yul\":12193:12195   */\n      0x1f\n        /* \"#utility.yul\":12185:12191   */\n      dup4\n        /* \"#utility.yul\":12182:12196   */\n      gt\n        /* \"#utility.yul\":12210:12211   */\n      0x01\n        /* \"#utility.yul\":12205:12837   */\n      dup2\n      eq\n      tag_280\n      jumpi\n        /* \"#utility.yul\":12881:12882   */\n      0x00\n        /* \"#utility.yul\":12898:12904   */\n      dup5\n        /* \"#utility.yul\":12895:12979   */\n      iszero\n      tag_281\n      jumpi\n        /* \"#utility.yul\":12954:12963   */\n      dup3\n        /* \"#utility.yul\":12949:12952   */\n      dup8\n        /* \"#utility.yul\":12945:12964   */\n      add\n        /* \"#utility.yul\":12932:12965   */\n      calldataload\n        /* \"#utility.yul\":12923:12965   */\n      swap1\n      pop\n        /* \"#utility.yul\":12895:12979   */\n    tag_281:\n        /* \"#utility.yul\":13005:13072   */\n      tag_282\n        /* \"#utility.yul\":13065:13071   */\n      dup6\n        /* \"#utility.yul\":13058:13063   */\n      dup3\n        /* \"#utility.yul\":13005:13072   */\n      tag_135\n      jump\t// in\n    tag_282:\n        /* \"#utility.yul\":12999:13003   */\n      dup7\n        /* \"#utility.yul\":12992:13073   */\n      sstore\n        /* \"#utility.yul\":12854:13083   */\n      pop\n        /* \"#utility.yul\":12175:13083   */\n      jump(tag_279)\n        /* \"#utility.yul\":12205:12837   */\n    tag_280:\n        /* \"#utility.yul\":12257:12261   */\n      0x1f\n        /* \"#utility.yul\":12253:12262   */\n      not\n        /* \"#utility.yul\":12245:12251   */\n      dup5\n        /* \"#utility.yul\":12241:12263   */\n      and\n        /* \"#utility.yul\":12291:12328   */\n      tag_283\n        /* \"#utility.yul\":12323:12327   */\n      dup7\n        /* \"#utility.yul\":12291:12328   */\n      tag_121\n      jump\t// in\n    tag_283:\n        /* \"#utility.yul\":12350:12351   */\n      0x00\n        /* \"#utility.yul\":12364:12579   */\n    tag_284:\n        /* \"#utility.yul\":12378:12385   */\n      dup3\n        /* \"#utility.yul\":12375:12376   */\n      dup2\n        /* \"#utility.yul\":12372:12386   */\n      lt\n        /* \"#utility.yul\":12364:12579   */\n      iszero\n      tag_286\n      jumpi\n        /* \"#utility.yul\":12464:12473   */\n      dup5\n        /* \"#utility.yul\":12459:12462   */\n      dup10\n        /* \"#utility.yul\":12455:12474   */\n      add\n        /* \"#utility.yul\":12442:12475   */\n      calldataload\n        /* \"#utility.yul\":12434:12440   */\n      dup3\n        /* \"#utility.yul\":12427:12476   */\n      sstore\n        /* \"#utility.yul\":12515:12516   */\n      0x01\n        /* \"#utility.yul\":12507:12513   */\n      dup3\n        /* \"#utility.yul\":12503:12517   */\n      add\n        /* \"#utility.yul\":12493:12517   */\n      swap2\n      pop\n        /* \"#utility.yul\":12562:12564   */\n      0x20\n        /* \"#utility.yul\":12551:12560   */\n      dup6\n        /* \"#utility.yul\":12547:12565   */\n      add\n        /* \"#utility.yul\":12534:12565   */\n      swap5\n      pop\n        /* \"#utility.yul\":12401:12405   */\n      0x20\n        /* \"#utility.yul\":12398:12399   */\n      dup2\n        /* \"#utility.yul\":12394:12406   */\n      add\n        /* \"#utility.yul\":12389:12406   */\n      swap1\n      pop\n        /* \"#utility.yul\":12364:12579   */\n      jump(tag_284)\n    tag_286:\n        /* \"#utility.yul\":12607:12613   */\n      dup7\n        /* \"#utility.yul\":12598:12605   */\n      dup4\n        /* \"#utility.yul\":12595:12614   */\n      lt\n        /* \"#utility.yul\":12592:12778   */\n      iszero\n      tag_287\n      jumpi\n        /* \"#utility.yul\":12672:12681   */\n      dup5\n        /* \"#utility.yul\":12667:12670   */\n      dup10\n        /* \"#utility.yul\":12663:12682   */\n      add\n        /* \"#utility.yul\":12650:12683   */\n      calldataload\n        /* \"#utility.yul\":12715:12763   */\n      tag_288\n        /* \"#utility.yul\":12757:12761   */\n      0x1f\n        /* \"#utility.yul\":12749:12755   */\n      dup10\n        /* \"#utility.yul\":12745:12762   */\n      and\n        /* \"#utility.yul\":12734:12743   */\n      dup3\n        /* \"#utility.yul\":12715:12763   */\n      tag_134\n      jump\t// in\n    tag_288:\n        /* \"#utility.yul\":12707:12713   */\n      dup4\n        /* \"#utility.yul\":12700:12764   */\n      sstore\n        /* \"#utility.yul\":12615:12778   */\n      pop\n        /* \"#utility.yul\":12592:12778   */\n    tag_287:\n        /* \"#utility.yul\":12824:12825   */\n      0x01\n        /* \"#utility.yul\":12820:12821   */\n      0x02\n        /* \"#utility.yul\":12812:12818   */\n      dup9\n        /* \"#utility.yul\":12808:12822   */\n      mul\n        /* \"#utility.yul\":12804:12826   */\n      add\n        /* \"#utility.yul\":12798:12802   */\n      dup9\n        /* \"#utility.yul\":12791:12827   */\n      sstore\n        /* \"#utility.yul\":12212:12837   */\n      pop\n      pop\n      pop\n        /* \"#utility.yul\":12175:13083   */\n    tag_279:\n      pop\n        /* \"#utility.yul\":11785:13089   */\n      pop\n      pop\n      pop\n        /* \"#utility.yul\":11686:13089   */\n      pop\n      pop\n      pop\n      jump\t// out\n        /* \"#utility.yul\":13095:13328   */\n    tag_81:\n        /* \"#utility.yul\":13134:13137   */\n      0x00\n        /* \"#utility.yul\":13157:13181   */\n      tag_290\n        /* \"#utility.yul\":13175:13180   */\n      dup3\n        /* \"#utility.yul\":13157:13181   */\n      tag_92\n      jump\t// in\n    tag_290:\n        /* \"#utility.yul\":13148:13181   */\n      swap2\n      pop\n        /* \"#utility.yul\":13203:13269   */\n      0xffffffffffffffffffffffffffffffffffffffffffffffffffffffffffffffff\n        /* \"#utility.yul\":13196:13201   */\n      dup3\n        /* \"#utility.yul\":13193:13270   */\n      sub\n        /* \"#utility.yul\":13190:13293   */\n      tag_291\n      jumpi\n        /* \"#utility.yul\":13273:13291   */\n      tag_292\n      tag_117\n      jump\t// in\n    tag_292:\n        /* \"#utility.yul\":13190:13293   */\n    tag_291:\n        /* \"#utility.yul\":13320:13321   */\n      0x01\n        /* \"#utility.yul\":13313:13318   */\n      dup3\n        /* \"#utility.yul\":13309:13322   */\n      add\n        /* \"#utility.yul\":13302:13322   */\n      swap1\n      pop\n        /* \"#utility.yul\":13095:13328   */\n      swap2\n      swap1\n      pop\n      jump\t// out\n\n    auxdata: 0xa26469706673582212206e55aa5e8c67f9f8768c9f8e7d95bc17a1b9d0bbc0f93dcca20ec9a88433fbb064736f6c634300080f0033\n}\n","bytecode":{"linkReferences":{},"object":"60806040523480156200001157600080fd5b50604051620011073803806200110783398181016040528101906200003791906200012c565b80600160006101000a81548173ffffffffffffffffffffffffffffffffffffffff021916908373ffffffffffffffffffffffffffffffffffffffff16021790555081600281905550505062000173565b600080fd5b6000819050919050565b620000a1816200008c565b8114620000ad57600080fd5b50565b600081519050620000c18162000096565b92915050565b600073ffffffffffffffffffffffffffffffffffffffff82169050919050565b6000620000f482620000c7565b9050919050565b6200010681620000e7565b81146200011257600080fd5b50565b6000815190506200012681620000fb565b92915050565b6000806040838503121562000146576200014562000087565b5b60006200015685828601620000b0565b9250506020620001698582860162000115565b9150509250929050565b610f8480620001836000396000f3fe60806040526004361061007b5760003560e01c80638a9cfd551161004e5780638a9cfd5514610152578063937e09b11461017b578063d7bb99ba146101a6578063d7d1bbdb146101b05761007b565b806303441006146100805780630a144391146100a9578063481c6a75146100e657806381d12c5814610111575b600080fd5b34801561008c57600080fd5b506100a760048036038101906100a291906107d7565b6101d9565b005b3480156100b557600080fd5b506100d060048036038101906100cb9190610862565b610322565b6040516100dd91906108aa565b60405180910390f35b3480156100f257600080fd5b506100fb610342565b60405161010891906108d4565b60405180910390f35b34801561011d57600080fd5b50610138600480360381019061013391906107d7565b610368565b6040516101499594939291906109b8565b60405180910390f35b34801561015e57600080fd5b5061017960048036038101906101749190610aa3565b610463565b005b34801561018757600080fd5b5061019061056e565b60405161019d9190610b17565b60405180910390f35b6101ae610574565b005b3480156101bc57600080fd5b506101d760048036038101906101d291906107d7565b61064b565b005b600160009054906101000a900473ffffffffffffffffffffffffffffffffffffffff1673ffffffffffffffffffffffffffffffffffffffff163373ffffffffffffffffffffffffffffffffffffffff161461023357600080fd5b600080828154811061024857610247610b32565b5b9060005260206000209060050201905060026004546102679190610bbf565b81600301541161027657600080fd5b8060020160149054906101000a900460ff161561029257600080fd5b8060020160009054906101000a900473ffffffffffffffffffffffffffffffffffffffff1673ffffffffffffffffffffffffffffffffffffffff166108fc82600101549081150290604051600060405180830381858888f19350505050158015610300573d6000803e3d6000fd5b5060018160020160146101000a81548160ff0219169083151502179055505050565b60036020528060005260406000206000915054906101000a900460ff1681565b600160009054906101000a900473ffffffffffffffffffffffffffffffffffffffff1681565b6000818154811061037857600080fd5b906000526020600020906005020160009150905080600001805461039b90610c1f565b80601f01602080910402602001604051908101604052809291908181526020018280546103c790610c1f565b80156104145780601f106103e957610100808354040283529160200191610414565b820191906000526020600020905b8154815290600101906020018083116103f757829003601f168201915b5050505050908060010154908060020160009054906101000a900473ffffffffffffffffffffffffffffffffffffffff16908060020160149054906101000a900460ff16908060030154905085565b600160009054906101000a900473ffffffffffffffffffffffffffffffffffffffff1673ffffffffffffffffffffffffffffffffffffffff163373ffffffffffffffffffffffffffffffffffffffff16146104bd57600080fd5b600080600181600181540180825580915050039060005260206000209060050201905084848260000191826104f3929190610e36565b50828160010181905550818160020160006101000a81548173ffffffffffffffffffffffffffffffffffffffff021916908373ffffffffffffffffffffffffffffffffffffffff16021790555060008160020160146101000a81548160ff021916908315150217905550600081600301819055505050505050565b60025481565b600254341161058257600080fd5b600360003373ffffffffffffffffffffffffffffffffffffffff1673ffffffffffffffffffffffffffffffffffffffff16815260200190815260200160002060009054906101000a900460ff16156105d957600080fd5b6001600360003373ffffffffffffffffffffffffffffffffffffffff1673ffffffffffffffffffffffffffffffffffffffff16815260200190815260200160002060006101000a81548160ff0219169083151502179055506004600081548092919061064490610f06565b9190505550565b60008082815481106106605761065f610b32565b5b90600052602060002090600502019050600360003373ffffffffffffffffffffffffffffffffffffffff1673ffffffffffffffffffffffffffffffffffffffff16815260200190815260200160002060009054906101000a900460ff166106c657600080fd5b8060040160003373ffffffffffffffffffffffffffffffffffffffff1673ffffffffffffffffffffffffffffffffffffffff16815260200190815260200160002060009054906101000a900460ff161561071f57600080fd5b60018160040160003373ffffffffffffffffffffffffffffffffffffffff1673ffffffffffffffffffffffffffffffffffffffff16815260200190815260200160002060006101000a81548160ff02191690831515021790555080600301600081548092919061078e90610f06565b91905055505050565b600080fd5b600080fd5b6000819050919050565b6107b4816107a1565b81146107bf57600080fd5b50565b6000813590506107d1816107ab565b92915050565b6000602082840312156107ed576107ec610797565b5b60006107fb848285016107c2565b91505092915050565b600073ffffffffffffffffffffffffffffffffffffffff82169050919050565b600061082f82610804565b9050919050565b61083f81610824565b811461084a57600080fd5b50565b60008135905061085c81610836565b92915050565b60006020828403121561087857610877610797565b5b60006108868482850161084d565b91505092915050565b60008115159050919050565b6108a48161088f565b82525050565b60006020820190506108bf600083018461089b565b92915050565b6108ce81610824565b82525050565b60006020820190506108e960008301846108c5565b92915050565b600081519050919050565b600082825260208201905092915050565b60005b8381101561092957808201518184015260208101905061090e565b83811115610938576000848401525b50505050565b6000601f19601f8301169050919050565b600061095a826108ef565b61096481856108fa565b935061097481856020860161090b565b61097d8161093e565b840191505092915050565b610991816107a1565b82525050565b60006109a282610804565b9050919050565b6109b281610997565b82525050565b600060a08201905081810360008301526109d2818861094f565b90506109e16020830187610988565b6109ee60408301866109a9565b6109fb606083018561089b565b610a086080830184610988565b9695505050505050565b600080fd5b600080fd5b600080fd5b60008083601f840112610a3757610a36610a12565b5b8235905067ffffffffffffffff811115610a5457610a53610a17565b5b602083019150836001820283011115610a7057610a6f610a1c565b5b9250929050565b610a8081610997565b8114610a8b57600080fd5b50565b600081359050610a9d81610a77565b92915050565b60008060008060608587031215610abd57610abc610797565b5b600085013567ffffffffffffffff811115610adb57610ada61079c565b5b610ae787828801610a21565b94509450506020610afa878288016107c2565b9250506040610b0b87828801610a8e565b91505092959194509250565b6000602082019050610b2c6000830184610988565b92915050565b7f4e487b7100000000000000000000000000000000000000000000000000000000600052603260045260246000fd5b7f4e487b7100000000000000000000000000000000000000000000000000000000600052601260045260246000fd5b7f4e487b7100000000000000000000000000000000000000000000000000000000600052601160045260246000fd5b6000610bca826107a1565b9150610bd5836107a1565b925082610be557610be4610b61565b5b828204905092915050565b7f4e487b7100000000000000000000000000000000000000000000000000000000600052602260045260246000fd5b60006002820490506001821680610c3757607f821691505b602082108103610c4a57610c49610bf0565b5b50919050565b600082905092915050565b7f4e487b7100000000000000000000000000000000000000000000000000000000600052604160045260246000fd5b60008190508160005260206000209050919050565b60006020601f8301049050919050565b600082821b905092915050565b600060088302610cec7fffffffffffffffffffffffffffffffffffffffffffffffffffffffffffffffff82610caf565b610cf68683610caf565b95508019841693508086168417925050509392505050565b6000819050919050565b6000610d33610d2e610d29846107a1565b610d0e565b6107a1565b9050919050565b6000819050919050565b610d4d83610d18565b610d61610d5982610d3a565b848454610cbc565b825550505050565b600090565b610d76610d69565b610d81818484610d44565b505050565b5b81811015610da557610d9a600082610d6e565b600181019050610d87565b5050565b601f821115610dea57610dbb81610c8a565b610dc484610c9f565b81016020851015610dd3578190505b610de7610ddf85610c9f565b830182610d86565b50505b505050565b600082821c905092915050565b6000610e0d60001984600802610def565b1980831691505092915050565b6000610e268383610dfc565b9150826002028217905092915050565b610e408383610c50565b67ffffffffffffffff811115610e5957610e58610c5b565b5b610e638254610c1f565b610e6e828285610da9565b6000601f831160018114610e9d5760008415610e8b578287013590505b610e958582610e1a565b865550610efd565b601f198416610eab86610c8a565b60005b82811015610ed357848901358255600182019150602085019450602081019050610eae565b86831015610ef05784890135610eec601f891682610dfc565b8355505b6001600288020188555050505b50505050505050565b6000610f11826107a1565b91507fffffffffffffffffffffffffffffffffffffffffffffffffffffffffffffffff8203610f4357610f42610b90565b5b60018201905091905056fea26469706673582212206e55aa5e8c67f9f8768c9f8e7d95bc17a1b9d0bbc0f93dcca20ec9a88433fbb064736f6c634300080f0033","opcodes":"PUSH1 0x80 PUSH1 0x40 MSTORE CALLVALUE DUP1 ISZERO PUSH3 0x11 JUMPI PUSH1 0x0 DUP1 REVERT JUMPDEST POP PUSH1 0x40 MLOAD PUSH3 0x1107 CODESIZE SUB DUP1 PUSH3 0x1107 DUP4 CODECOPY DUP2 DUP2 ADD PUSH1 0x40 MSTORE DUP2 ADD SWAP1 PUSH3 0x37 SWAP2 SWAP1 PUSH3 0x12C JUMP JUMPDEST DUP1 PUSH1 0x1 PUSH1 0x0 PUSH2 0x100 EXP DUP2 SLOAD DUP2 PUSH20 0xFFFFFFFFFFFFFFFFFFFFFFFFFFFFFFFFFFFFFFFF MUL NOT AND SWAP1 DUP4 PUSH20 0xFFFFFFFFFFFFFFFFFFFFFFFFFFFFFFFFFFFFFFFF AND MUL OR SWAP1 SSTORE POP DUP2 PUSH1 0x2 DUP2 SWAP1 SSTORE POP POP POP PUSH3 0x173 JUMP JUMPDEST PUSH1 0x0 DUP1 REVERT JUMPDEST PUSH1 0x0 DUP2 SWAP1 POP SWAP2 SWAP1 POP JUMP JUMPDEST PUSH3 0xA1 DUP2 PUSH3 0x8C JUMP JUMPDEST DUP2 EQ PUSH3 0xAD JUMPI PUSH1 0x0 DUP1 REVERT JUMPDEST POP JUMP JUMPDEST PUSH1 0x0 DUP2 MLOAD SWAP1 POP PUSH3 0xC1 DUP2 PUSH3 0x96 JUMP JUMPDEST SWAP3 SWAP2 POP POP JUMP JUMPDEST PUSH1 0x0 PUSH20 0xFFFFFFFFFFFFFFFFFFFFFFFFFFFFFFFFFFFFFFFF DUP3 AND SWAP1 POP SWAP2 SWAP1 POP JUMP JUMPDEST PUSH1 0x0 PUSH3 0xF4 DUP3 PUSH3 0xC7 JUMP JUMPDEST SWAP1 POP SWAP2 SWAP1 POP JUMP JUMPDEST PUSH3 0x106 DUP2 PUSH3 0xE7 JUMP JUMPDEST DUP2 EQ PUSH3 0x112 JUMPI PUSH1 0x0 DUP1 REVERT JUMPDEST POP JUMP JUMPDEST PUSH1 0x0 DUP2 MLOAD SWAP1 POP PUSH3 0x126 DUP2 PUSH3 0xFB JUMP JUMPDEST SWAP3 SWAP2 POP POP JUMP JUMPDEST PUSH1 0x0 DUP1 PUSH1 0x40 DUP4 DUP6 SUB SLT ISZERO PUSH3 0x146 JUMPI PUSH3 0x145 PUSH3 0x87 JUMP JUMPDEST JUMPDEST PUSH1 0x0 PUSH3 0x156 DUP6 DUP3 DUP7 ADD PUSH3 0xB0 JUMP JUMPDEST SWAP3 POP POP PUSH1 0x20 PUSH3 0x169 DUP6 DUP3 DUP7 ADD PUSH3 0x115 JUMP JUMPDEST SWAP2 POP POP SWAP3 POP SWAP3 SWAP1 POP JUMP JUMPDEST PUSH2 0xF84 DUP1 PUSH3 0x183 PUSH1 0x0 CODECOPY PUSH1 0x0 RETURN INVALID PUSH1 0x80 PUSH1 0x40 MSTORE PUSH1 0x4 CALLDATASIZE LT PUSH2 0x7B JUMPI PUSH1 0x0 CALLDATALOAD PUSH1 0xE0 SHR DUP1 PUSH4 0x8A9CFD55 GT PUSH2 0x4E JUMPI DUP1 PUSH4 0x8A9CFD55 EQ PUSH2 0x152 JUMPI DUP1 PUSH4 0x937E09B1 EQ PUSH2 0x17B JUMPI DUP1 PUSH4 0xD7BB99BA EQ PUSH2 0x1A6 JUMPI DUP1 PUSH4 0xD7D1BBDB EQ PUSH2 0x1B0 JUMPI PUSH2 0x7B JUMP JUMPDEST DUP1 PUSH4 0x3441006 EQ PUSH2 0x80 JUMPI DUP1 PUSH4 0xA144391 EQ PUSH2 0xA9 JUMPI DUP1 PUSH4 0x481C6A75 EQ PUSH2 0xE6 JUMPI DUP1 PUSH4 0x81D12C58 EQ PUSH2 0x111 JUMPI JUMPDEST PUSH1 0x0 DUP1 REVERT JUMPDEST CALLVALUE DUP1 ISZERO PUSH2 0x8C JUMPI PUSH1 0x0 DUP1 REVERT JUMPDEST POP PUSH2 0xA7 PUSH1 0x4 DUP1 CALLDATASIZE SUB DUP2 ADD SWAP1 PUSH2 0xA2 SWAP2 SWAP1 PUSH2 0x7D7 JUMP JUMPDEST PUSH2 0x1D9 JUMP JUMPDEST STOP JUMPDEST CALLVALUE DUP1 ISZERO PUSH2 0xB5 JUMPI PUSH1 0x0 DUP1 REVERT JUMPDEST POP PUSH2 0xD0 PUSH1 0x4 DUP1 CALLDATASIZE SUB DUP2 ADD SWAP1 PUSH2 0xCB SWAP2 SWAP1 PUSH2 0x862 JUMP JUMPDEST PUSH2 0x322 JUMP JUMPDEST PUSH1 0x40 MLOAD PUSH2 0xDD SWAP2 SWAP1 PUSH2 0x8AA JUMP JUMPDEST PUSH1 0x40 MLOAD DUP1 SWAP2 SUB SWAP1 RETURN JUMPDEST CALLVALUE DUP1 ISZERO PUSH2 0xF2 JUMPI PUSH1 0x0 DUP1 REVERT JUMPDEST POP PUSH2 0xFB PUSH2 0x342 JUMP JUMPDEST PUSH1 0x40 MLOAD PUSH2 0x108 SWAP2 SWAP1 PUSH2 0x8D4 JUMP JUMPDEST PUSH1 0x40 MLOAD DUP1 SWAP2 SUB SWAP1 RETURN JUMPDEST CALLVALUE DUP1 ISZERO PUSH2 0x11D JUMPI PUSH1 0x0 DUP1 REVERT JUMPDEST POP PUSH2 0x138 PUSH1 0x4 DUP1 CALLDATASIZE SUB DUP2 ADD SWAP1 PUSH2 0x133 SWAP2 SWAP1 PUSH2 0x7D7 JUMP JUMPDEST PUSH2 0x368 JUMP JUMPDEST PUSH1 0x40 MLOAD PUSH2 0x149 SWAP6 SWAP5 SWAP4 SWAP3 SWAP2 SWAP1 PUSH2 0x9B8 JUMP JUMPDEST PUSH1 0x40 MLOAD DUP1 SWAP2 SUB SWAP1 RETURN JUMPDEST CALLVALUE DUP1 ISZERO PUSH2 0x15E JUMPI PUSH1 0x0 DUP1 REVERT JUMPDEST POP PUSH2 0x179 PUSH1 0x4 DUP1 CALLDATASIZE SUB DUP2 ADD SWAP1 PUSH2 0x174 SWAP2 SWAP1 PUSH2 0xAA3 JUMP JUMPDEST PUSH2 0x463 JUMP JUMPDEST STOP JUMPDEST CALLVALUE DUP1 ISZERO PUSH2 0x187 JUMPI PUSH1 0x0 DUP1 REVERT JUMPDEST POP PUSH2 0x190 PUSH2 0x56E JUMP JUMPDEST PUSH1 0x40 MLOAD PUSH2 0x19D SWAP2 SWAP1 PUSH2 0xB17 JUMP JUMPDEST PUSH1 0x40 MLOAD DUP1 SWAP2 SUB SWAP1 RETURN JUMPDEST PUSH2 0x1AE PUSH2 0x574 JUMP JUMPDEST STOP JUMPDEST CALLVALUE DUP1 ISZERO PUSH2 0x1BC JUMPI PUSH1 0x0 DUP1 REVERT JUMPDEST POP PUSH2 0x1D7 PUSH1 0x4 DUP1 CALLDATASIZE SUB DUP2 ADD SWAP1 PUSH2 0x1D2 SWAP2 SWAP1 PUSH2 0x7D7 JUMP JUMPDEST PUSH2 0x64B JUMP JUMPDEST STOP JUMPDEST PUSH1 0x1 PUSH1 0x0 SWAP1 SLOAD SWAP1 PUSH2 0x100 EXP SWAP1 DIV PUSH20 0xFFFFFFFFFFFFFFFFFFFFFFFFFFFFFFFFFFFFFFFF AND PUSH20 0xFFFFFFFFFFFFFFFFFFFFFFFFFFFFFFFFFFFFFFFF AND CALLER PUSH20 0xFFFFFFFFFFFFFFFFFFFFFFFFFFFFFFFFFFFFFFFF AND EQ PUSH2 0x233 JUMPI PUSH1 0x0 DUP1 REVERT JUMPDEST PUSH1 0x0 DUP1 DUP3 DUP2 SLOAD DUP2 LT PUSH2 0x248 JUMPI PUSH2 0x247 PUSH2 0xB32 JUMP JUMPDEST JUMPDEST SWAP1 PUSH1 0x0 MSTORE PUSH1 0x20 PUSH1 0x0 KECCAK256 SWAP1 PUSH1 0x5 MUL ADD SWAP1 POP PUSH1 0x2 PUSH1 0x4 SLOAD PUSH2 0x267 SWAP2 SWAP1 PUSH2 0xBBF JUMP JUMPDEST DUP2 PUSH1 0x3 ADD SLOAD GT PUSH2 0x276 JUMPI PUSH1 0x0 DUP1 REVERT JUMPDEST DUP1 PUSH1 0x2 ADD PUSH1 0x14 SWAP1 SLOAD SWAP1 PUSH2 0x100 EXP SWAP1 DIV PUSH1 0xFF AND ISZERO PUSH2 0x292 JUMPI PUSH1 0x0 DUP1 REVERT JUMPDEST DUP1 PUSH1 0x2 ADD PUSH1 0x0 SWAP1 SLOAD SWAP1 PUSH2 0x100 EXP SWAP1 DIV PUSH20 0xFFFFFFFFFFFFFFFFFFFFFFFFFFFFFFFFFFFFFFFF AND PUSH20 0xFFFFFFFFFFFFFFFFFFFFFFFFFFFFFFFFFFFFFFFF AND PUSH2 0x8FC DUP3 PUSH1 0x1 ADD SLOAD SWAP1 DUP2 ISZERO MUL SWAP1 PUSH1 0x40 MLOAD PUSH1 0x0 PUSH1 0x40 MLOAD DUP1 DUP4 SUB DUP2 DUP6 DUP9 DUP9 CALL SWAP4 POP POP POP POP ISZERO DUP1 ISZERO PUSH2 0x300 JUMPI RETURNDATASIZE PUSH1 0x0 DUP1 RETURNDATACOPY RETURNDATASIZE PUSH1 0x0 REVERT JUMPDEST POP PUSH1 0x1 DUP2 PUSH1 0x2 ADD PUSH1 0x14 PUSH2 0x100 EXP DUP2 SLOAD DUP2 PUSH1 0xFF MUL NOT AND SWAP1 DUP4 ISZERO ISZERO MUL OR SWAP1 SSTORE POP POP POP JUMP JUMPDEST PUSH1 0x3 PUSH1 0x20 MSTORE DUP1 PUSH1 0x0 MSTORE PUSH1 0x40 PUSH1 0x0 KECCAK256 PUSH1 0x0 SWAP2 POP SLOAD SWAP1 PUSH2 0x100 EXP SWAP1 DIV PUSH1 0xFF AND DUP2 JUMP JUMPDEST PUSH1 0x1 PUSH1 0x0 SWAP1 SLOAD SWAP1 PUSH2 0x100 EXP SWAP1 DIV PUSH20 0xFFFFFFFFFFFFFFFFFFFFFFFFFFFFFFFFFFFFFFFF AND DUP2 JUMP JUMPDEST PUSH1 0x0 DUP2 DUP2 SLOAD DUP2 LT PUSH2 0x378 JUMPI PUSH1 0x0 DUP1 REVERT JUMPDEST SWAP1 PUSH1 0x0 MSTORE PUSH1 0x20 PUSH1 0x0 KECCAK256 SWAP1 PUSH1 0x5 MUL ADD PUSH1 0x0 SWAP2 POP SWAP1 POP DUP1 PUSH1 0x0 ADD DUP1 SLOAD PUSH2 0x39B SWAP1 PUSH2 0xC1F JUMP JUMPDEST DUP1 PUSH1 0x1F ADD PUSH1 0x20 DUP1 SWAP2 DIV MUL PUSH1 0x20 ADD PUSH1 0x40 MLOAD SWAP1 DUP2 ADD PUSH1 0x40 MSTORE DUP1 SWAP3 SWAP2 SWAP1 DUP2 DUP2 MSTORE PUSH1 0x20 ADD DUP3 DUP1 SLOAD PUSH2 0x3C7 SWAP1 PUSH2 0xC1F JUMP JUMPDEST DUP1 ISZERO PUSH2 0x414 JUMPI DUP1 PUSH1 0x1F LT PUSH2 0x3E9 JUMPI PUSH2 0x100 DUP1 DUP4 SLOAD DIV MUL DUP4 MSTORE SWAP2 PUSH1 0x20 ADD SWAP2 PUSH2 0x414 JUMP JUMPDEST DUP3 ADD SWAP2 SWAP1 PUSH1 0x0 MSTORE PUSH1 0x20 PUSH1 0x0 KECCAK256 SWAP1 JUMPDEST DUP2 SLOAD DUP2 MSTORE SWAP1 PUSH1 0x1 ADD SWAP1 PUSH1 0x20 ADD DUP1 DUP4 GT PUSH2 0x3F7 JUMPI DUP3 SWAP1 SUB PUSH1 0x1F AND DUP3 ADD SWAP2 JUMPDEST POP POP POP POP POP SWAP1 DUP1 PUSH1 0x1 ADD SLOAD SWAP1 DUP1 PUSH1 0x2 ADD PUSH1 0x0 SWAP1 SLOAD SWAP1 PUSH2 0x100 EXP SWAP1 DIV PUSH20 0xFFFFFFFFFFFFFFFFFFFFFFFFFFFFFFFFFFFFFFFF AND SWAP1 DUP1 PUSH1 0x2 ADD PUSH1 0x14 SWAP1 SLOAD SWAP1 PUSH2 0x100 EXP SWAP1 DIV PUSH1 0xFF AND SWAP1 DUP1 PUSH1 0x3 ADD SLOAD SWAP1 POP DUP6 JUMP JUMPDEST PUSH1 0x1 PUSH1 0x0 SWAP1 SLOAD SWAP1 PUSH2 0x100 EXP SWAP1 DIV PUSH20 0xFFFFFFFFFFFFFFFFFFFFFFFFFFFFFFFFFFFFFFFF AND PUSH20 0xFFFFFFFFFFFFFFFFFFFFFFFFFFFFFFFFFFFFFFFF AND CALLER PUSH20 0xFFFFFFFFFFFFFFFFFFFFFFFFFFFFFFFFFFFFFFFF AND EQ PUSH2 0x4BD JUMPI PUSH1 0x0 DUP1 REVERT JUMPDEST PUSH1 0x0 DUP1 PUSH1 0x1 DUP2 PUSH1 0x1 DUP2 SLOAD ADD DUP1 DUP3 SSTORE DUP1 SWAP2 POP POP SUB SWAP1 PUSH1 0x0 MSTORE PUSH1 0x20 PUSH1 0x0 KECCAK256 SWAP1 PUSH1 0x5 MUL ADD SWAP1 POP DUP5 DUP5 DUP3 PUSH1 0x0 ADD SWAP2 DUP3 PUSH2 0x4F3 SWAP3 SWAP2 SWAP1 PUSH2 0xE36 JUMP JUMPDEST POP DUP3 DUP2 PUSH1 0x1 ADD DUP2 SWAP1 SSTORE POP DUP2 DUP2 PUSH1 0x2 ADD PUSH1 0x0 PUSH2 0x100 EXP DUP2 SLOAD DUP2 PUSH20 0xFFFFFFFFFFFFFFFFFFFFFFFFFFFFFFFFFFFFFFFF MUL NOT AND SWAP1 DUP4 PUSH20 0xFFFFFFFFFFFFFFFFFFFFFFFFFFFFFFFFFFFFFFFF AND MUL OR SWAP1 SSTORE POP PUSH1 0x0 DUP2 PUSH1 0x2 ADD PUSH1 0x14 PUSH2 0x100 EXP DUP2 SLOAD DUP2 PUSH1 0xFF MUL NOT AND SWAP1 DUP4 ISZERO ISZERO MUL OR SWAP1 SSTORE POP PUSH1 0x0 DUP2 PUSH1 0x3 ADD DUP2 SWAP1 SSTORE POP POP POP POP POP POP JUMP JUMPDEST PUSH1 0x2 SLOAD DUP2 JUMP JUMPDEST PUSH1 0x2 SLOAD CALLVALUE GT PUSH2 0x582 JUMPI PUSH1 0x0 DUP1 REVERT JUMPDEST PUSH1 0x3 PUSH1 0x0 CALLER PUSH20 0xFFFFFFFFFFFFFFFFFFFFFFFFFFFFFFFFFFFFFFFF AND PUSH20 0xFFFFFFFFFFFFFFFFFFFFFFFFFFFFFFFFFFFFFFFF AND DUP2 MSTORE PUSH1 0x20 ADD SWAP1 DUP2 MSTORE PUSH1 0x20 ADD PUSH1 0x0 KECCAK256 PUSH1 0x0 SWAP1 SLOAD SWAP1 PUSH2 0x100 EXP SWAP1 DIV PUSH1 0xFF AND ISZERO PUSH2 0x5D9 JUMPI PUSH1 0x0 DUP1 REVERT JUMPDEST PUSH1 0x1 PUSH1 0x3 PUSH1 0x0 CALLER PUSH20 0xFFFFFFFFFFFFFFFFFFFFFFFFFFFFFFFFFFFFFFFF AND PUSH20 0xFFFFFFFFFFFFFFFFFFFFFFFFFFFFFFFFFFFFFFFF AND DUP2 MSTORE PUSH1 0x20 ADD SWAP1 DUP2 MSTORE PUSH1 0x20 ADD PUSH1 0x0 KECCAK256 PUSH1 0x0 PUSH2 0x100 EXP DUP2 SLOAD DUP2 PUSH1 0xFF MUL NOT AND SWAP1 DUP4 ISZERO ISZERO MUL OR SWAP1 SSTORE POP PUSH1 0x4 PUSH1 0x0 DUP2 SLOAD DUP1 SWAP3 SWAP2 SWAP1 PUSH2 0x644 SWAP1 PUSH2 0xF06 JUMP JUMPDEST SWAP2 SWAP1 POP SSTORE POP JUMP JUMPDEST PUSH1 0x0 DUP1 DUP3 DUP2 SLOAD DUP2 LT PUSH2 0x660 JUMPI PUSH2 0x65F PUSH2 0xB32 JUMP JUMPDEST JUMPDEST SWAP1 PUSH1 0x0 MSTORE PUSH1 0x20 PUSH1 0x0 KECCAK256 SWAP1 PUSH1 0x5 MUL ADD SWAP1 POP PUSH1 0x3 PUSH1 0x0 CALLER PUSH20 0xFFFFFFFFFFFFFFFFFFFFFFFFFFFFFFFFFFFFFFFF AND PUSH20 0xFFFFFFFFFFFFFFFFFFFFFFFFFFFFFFFFFFFFFFFF AND DUP2 MSTORE PUSH1 0x20 ADD SWAP1 DUP2 MSTORE PUSH1 0x20 ADD PUSH1 0x0 KECCAK256 PUSH1 0x0 SWAP1 SLOAD SWAP1 PUSH2 0x100 EXP SWAP1 DIV PUSH1 0xFF AND PUSH2 0x6C6 JUMPI PUSH1 0x0 DUP1 REVERT JUMPDEST DUP1 PUSH1 0x4 ADD PUSH1 0x0 CALLER PUSH20 0xFFFFFFFFFFFFFFFFFFFFFFFFFFFFFFFFFFFFFFFF AND PUSH20 0xFFFFFFFFFFFFFFFFFFFFFFFFFFFFFFFFFFFFFFFF AND DUP2 MSTORE PUSH1 0x20 ADD SWAP1 DUP2 MSTORE PUSH1 0x20 ADD PUSH1 0x0 KECCAK256 PUSH1 0x0 SWAP1 SLOAD SWAP1 PUSH2 0x100 EXP SWAP1 DIV PUSH1 0xFF AND ISZERO PUSH2 0x71F JUMPI PUSH1 0x0 DUP1 REVERT JUMPDEST PUSH1 0x1 DUP2 PUSH1 0x4 ADD PUSH1 0x0 CALLER PUSH20 0xFFFFFFFFFFFFFFFFFFFFFFFFFFFFFFFFFFFFFFFF AND PUSH20 0xFFFFFFFFFFFFFFFFFFFFFFFFFFFFFFFFFFFFFFFF AND DUP2 MSTORE PUSH1 0x20 ADD SWAP1 DUP2 MSTORE PUSH1 0x20 ADD PUSH1 0x0 KECCAK256 PUSH1 0x0 PUSH2 0x100 EXP DUP2 SLOAD DUP2 PUSH1 0xFF MUL NOT AND SWAP1 DUP4 ISZERO ISZERO MUL OR SWAP1 SSTORE POP DUP1 PUSH1 0x3 ADD PUSH1 0x0 DUP2 SLOAD DUP1 SWAP3 SWAP2 SWAP1 PUSH2 0x78E SWAP1 PUSH2 0xF06 JUMP JUMPDEST SWAP2 SWAP1 POP SSTORE POP POP POP JUMP JUMPDEST PUSH1 0x0 DUP1 REVERT JUMPDEST PUSH1 0x0 DUP1 REVERT JUMPDEST PUSH1 0x0 DUP2 SWAP1 POP SWAP2 SWAP1 POP JUMP JUMPDEST PUSH2 0x7B4 DUP2 PUSH2 0x7A1 JUMP JUMPDEST DUP2 EQ PUSH2 0x7BF JUMPI PUSH1 0x0 DUP1 REVERT JUMPDEST POP JUMP JUMPDEST PUSH1 0x0 DUP2 CALLDATALOAD SWAP1 POP PUSH2 0x7D1 DUP2 PUSH2 0x7AB JUMP JUMPDEST SWAP3 SWAP2 POP POP JUMP JUMPDEST PUSH1 0x0 PUSH1 0x20 DUP3 DUP5 SUB SLT ISZERO PUSH2 0x7ED JUMPI PUSH2 0x7EC PUSH2 0x797 JUMP JUMPDEST JUMPDEST PUSH1 0x0 PUSH2 0x7FB DUP5 DUP3 DUP6 ADD PUSH2 0x7C2 JUMP JUMPDEST SWAP2 POP POP SWAP3 SWAP2 POP POP JUMP JUMPDEST PUSH1 0x0 PUSH20 0xFFFFFFFFFFFFFFFFFFFFFFFFFFFFFFFFFFFFFFFF DUP3 AND SWAP1 POP SWAP2 SWAP1 POP JUMP JUMPDEST PUSH1 0x0 PUSH2 0x82F DUP3 PUSH2 0x804 JUMP JUMPDEST SWAP1 POP SWAP2 SWAP1 POP JUMP JUMPDEST PUSH2 0x83F DUP2 PUSH2 0x824 JUMP JUMPDEST DUP2 EQ PUSH2 0x84A JUMPI PUSH1 0x0 DUP1 REVERT JUMPDEST POP JUMP JUMPDEST PUSH1 0x0 DUP2 CALLDATALOAD SWAP1 POP PUSH2 0x85C DUP2 PUSH2 0x836 JUMP JUMPDEST SWAP3 SWAP2 POP POP JUMP JUMPDEST PUSH1 0x0 PUSH1 0x20 DUP3 DUP5 SUB SLT ISZERO PUSH2 0x878 JUMPI PUSH2 0x877 PUSH2 0x797 JUMP JUMPDEST JUMPDEST PUSH1 0x0 PUSH2 0x886 DUP5 DUP3 DUP6 ADD PUSH2 0x84D JUMP JUMPDEST SWAP2 POP POP SWAP3 SWAP2 POP POP JUMP JUMPDEST PUSH1 0x0 DUP2 ISZERO ISZERO SWAP1 POP SWAP2 SWAP1 POP JUMP JUMPDEST PUSH2 0x8A4 DUP2 PUSH2 0x88F JUMP JUMPDEST DUP3 MSTORE POP POP JUMP JUMPDEST PUSH1 0x0 PUSH1 0x20 DUP3 ADD SWAP1 POP PUSH2 0x8BF PUSH1 0x0 DUP4 ADD DUP5 PUSH2 0x89B JUMP JUMPDEST SWAP3 SWAP2 POP POP JUMP JUMPDEST PUSH2 0x8CE DUP2 PUSH2 0x824 JUMP JUMPDEST DUP3 MSTORE POP POP JUMP JUMPDEST PUSH1 0x0 PUSH1 0x20 DUP3 ADD SWAP1 POP PUSH2 0x8E9 PUSH1 0x0 DUP4 ADD DUP5 PUSH2 0x8C5 JUMP JUMPDEST SWAP3 SWAP2 POP POP JUMP JUMPDEST PUSH1 0x0 DUP2 MLOAD SWAP1 POP SWAP2 SWAP1 POP JUMP JUMPDEST PUSH1 0x0 DUP3 DUP3 MSTORE PUSH1 0x20 DUP3 ADD SWAP1 POP SWAP3 SWAP2 POP POP JUMP JUMPDEST PUSH1 0x0 JUMPDEST DUP4 DUP2 LT ISZERO PUSH2 0x929 JUMPI DUP1 DUP3 ADD MLOAD DUP2 DUP5 ADD MSTORE PUSH1 0x20 DUP2 ADD SWAP1 POP PUSH2 0x90E JUMP JUMPDEST DUP4 DUP2 GT ISZERO PUSH2 0x938 JUMPI PUSH1 0x0 DUP5 DUP5 ADD MSTORE JUMPDEST POP POP POP POP JUMP JUMPDEST PUSH1 0x0 PUSH1 0x1F NOT PUSH1 0x1F DUP4 ADD AND SWAP1 POP SWAP2 SWAP1 POP JUMP JUMPDEST PUSH1 0x0 PUSH2 0x95A DUP3 PUSH2 0x8EF JUMP JUMPDEST PUSH2 0x964 DUP2 DUP6 PUSH2 0x8FA JUMP JUMPDEST SWAP4 POP PUSH2 0x974 DUP2 DUP6 PUSH1 0x20 DUP7 ADD PUSH2 0x90B JUMP JUMPDEST PUSH2 0x97D DUP2 PUSH2 0x93E JUMP JUMPDEST DUP5 ADD SWAP2 POP POP SWAP3 SWAP2 POP POP JUMP JUMPDEST PUSH2 0x991 DUP2 PUSH2 0x7A1 JUMP JUMPDEST DUP3 MSTORE POP POP JUMP JUMPDEST PUSH1 0x0 PUSH2 0x9A2 DUP3 PUSH2 0x804 JUMP JUMPDEST SWAP1 POP SWAP2 SWAP1 POP JUMP JUMPDEST PUSH2 0x9B2 DUP2 PUSH2 0x997 JUMP JUMPDEST DUP3 MSTORE POP POP JUMP JUMPDEST PUSH1 0x0 PUSH1 0xA0 DUP3 ADD SWAP1 POP DUP2 DUP2 SUB PUSH1 0x0 DUP4 ADD MSTORE PUSH2 0x9D2 DUP2 DUP9 PUSH2 0x94F JUMP JUMPDEST SWAP1 POP PUSH2 0x9E1 PUSH1 0x20 DUP4 ADD DUP8 PUSH2 0x988 JUMP JUMPDEST PUSH2 0x9EE PUSH1 0x40 DUP4 ADD DUP7 PUSH2 0x9A9 JUMP JUMPDEST PUSH2 0x9FB PUSH1 0x60 DUP4 ADD DUP6 PUSH2 0x89B JUMP JUMPDEST PUSH2 0xA08 PUSH1 0x80 DUP4 ADD DUP5 PUSH2 0x988 JUMP JUMPDEST SWAP7 SWAP6 POP POP POP POP POP POP JUMP JUMPDEST PUSH1 0x0 DUP1 REVERT JUMPDEST PUSH1 0x0 DUP1 REVERT JUMPDEST PUSH1 0x0 DUP1 REVERT JUMPDEST PUSH1 0x0 DUP1 DUP4 PUSH1 0x1F DUP5 ADD SLT PUSH2 0xA37 JUMPI PUSH2 0xA36 PUSH2 0xA12 JUMP JUMPDEST JUMPDEST DUP3 CALLDATALOAD SWAP1 POP PUSH8 0xFFFFFFFFFFFFFFFF DUP2 GT ISZERO PUSH2 0xA54 JUMPI PUSH2 0xA53 PUSH2 0xA17 JUMP JUMPDEST JUMPDEST PUSH1 0x20 DUP4 ADD SWAP2 POP DUP4 PUSH1 0x1 DUP3 MUL DUP4 ADD GT ISZERO PUSH2 0xA70 JUMPI PUSH2 0xA6F PUSH2 0xA1C JUMP JUMPDEST JUMPDEST SWAP3 POP SWAP3 SWAP1 POP JUMP JUMPDEST PUSH2 0xA80 DUP2 PUSH2 0x997 JUMP JUMPDEST DUP2 EQ PUSH2 0xA8B JUMPI PUSH1 0x0 DUP1 REVERT JUMPDEST POP JUMP JUMPDEST PUSH1 0x0 DUP2 CALLDATALOAD SWAP1 POP PUSH2 0xA9D DUP2 PUSH2 0xA77 JUMP JUMPDEST SWAP3 SWAP2 POP POP JUMP JUMPDEST PUSH1 0x0 DUP1 PUSH1 0x0 DUP1 PUSH1 0x60 DUP6 DUP8 SUB SLT ISZERO PUSH2 0xABD JUMPI PUSH2 0xABC PUSH2 0x797 JUMP JUMPDEST JUMPDEST PUSH1 0x0 DUP6 ADD CALLDATALOAD PUSH8 0xFFFFFFFFFFFFFFFF DUP2 GT ISZERO PUSH2 0xADB JUMPI PUSH2 0xADA PUSH2 0x79C JUMP JUMPDEST JUMPDEST PUSH2 0xAE7 DUP8 DUP3 DUP9 ADD PUSH2 0xA21 JUMP JUMPDEST SWAP5 POP SWAP5 POP POP PUSH1 0x20 PUSH2 0xAFA DUP8 DUP3 DUP9 ADD PUSH2 0x7C2 JUMP JUMPDEST SWAP3 POP POP PUSH1 0x40 PUSH2 0xB0B DUP8 DUP3 DUP9 ADD PUSH2 0xA8E JUMP JUMPDEST SWAP2 POP POP SWAP3 SWAP6 SWAP2 SWAP5 POP SWAP3 POP JUMP JUMPDEST PUSH1 0x0 PUSH1 0x20 DUP3 ADD SWAP1 POP PUSH2 0xB2C PUSH1 0x0 DUP4 ADD DUP5 PUSH2 0x988 JUMP JUMPDEST SWAP3 SWAP2 POP POP JUMP JUMPDEST PUSH32 0x4E487B7100000000000000000000000000000000000000000000000000000000 PUSH1 0x0 MSTORE PUSH1 0x32 PUSH1 0x4 MSTORE PUSH1 0x24 PUSH1 0x0 REVERT JUMPDEST PUSH32 0x4E487B7100000000000000000000000000000000000000000000000000000000 PUSH1 0x0 MSTORE PUSH1 0x12 PUSH1 0x4 MSTORE PUSH1 0x24 PUSH1 0x0 REVERT JUMPDEST PUSH32 0x4E487B7100000000000000000000000000000000000000000000000000000000 PUSH1 0x0 MSTORE PUSH1 0x11 PUSH1 0x4 MSTORE PUSH1 0x24 PUSH1 0x0 REVERT JUMPDEST PUSH1 0x0 PUSH2 0xBCA DUP3 PUSH2 0x7A1 JUMP JUMPDEST SWAP2 POP PUSH2 0xBD5 DUP4 PUSH2 0x7A1 JUMP JUMPDEST SWAP3 POP DUP3 PUSH2 0xBE5 JUMPI PUSH2 0xBE4 PUSH2 0xB61 JUMP JUMPDEST JUMPDEST DUP3 DUP3 DIV SWAP1 POP SWAP3 SWAP2 POP POP JUMP JUMPDEST PUSH32 0x4E487B7100000000000000000000000000000000000000000000000000000000 PUSH1 0x0 MSTORE PUSH1 0x22 PUSH1 0x4 MSTORE PUSH1 0x24 PUSH1 0x0 REVERT JUMPDEST PUSH1 0x0 PUSH1 0x2 DUP3 DIV SWAP1 POP PUSH1 0x1 DUP3 AND DUP1 PUSH2 0xC37 JUMPI PUSH1 0x7F DUP3 AND SWAP2 POP JUMPDEST PUSH1 0x20 DUP3 LT DUP2 SUB PUSH2 0xC4A JUMPI PUSH2 0xC49 PUSH2 0xBF0 JUMP JUMPDEST JUMPDEST POP SWAP2 SWAP1 POP JUMP JUMPDEST PUSH1 0x0 DUP3 SWAP1 POP SWAP3 SWAP2 POP POP JUMP JUMPDEST PUSH32 0x4E487B7100000000000000000000000000000000000000000000000000000000 PUSH1 0x0 MSTORE PUSH1 0x41 PUSH1 0x4 MSTORE PUSH1 0x24 PUSH1 0x0 REVERT JUMPDEST PUSH1 0x0 DUP2 SWAP1 POP DUP2 PUSH1 0x0 MSTORE PUSH1 0x20 PUSH1 0x0 KECCAK256 SWAP1 POP SWAP2 SWAP1 POP JUMP JUMPDEST PUSH1 0x0 PUSH1 0x20 PUSH1 0x1F DUP4 ADD DIV SWAP1 POP SWAP2 SWAP1 POP JUMP JUMPDEST PUSH1 0x0 DUP3 DUP3 SHL SWAP1 POP SWAP3 SWAP2 POP POP JUMP JUMPDEST PUSH1 0x0 PUSH1 0x8 DUP4 MUL PUSH2 0xCEC PUSH32 0xFFFFFFFFFFFFFFFFFFFFFFFFFFFFFFFFFFFFFFFFFFFFFFFFFFFFFFFFFFFFFFFF DUP3 PUSH2 0xCAF JUMP JUMPDEST PUSH2 0xCF6 DUP7 DUP4 PUSH2 0xCAF JUMP JUMPDEST SWAP6 POP DUP1 NOT DUP5 AND SWAP4 POP DUP1 DUP7 AND DUP5 OR SWAP3 POP POP POP SWAP4 SWAP3 POP POP POP JUMP JUMPDEST PUSH1 0x0 DUP2 SWAP1 POP SWAP2 SWAP1 POP JUMP JUMPDEST PUSH1 0x0 PUSH2 0xD33 PUSH2 0xD2E PUSH2 0xD29 DUP5 PUSH2 0x7A1 JUMP JUMPDEST PUSH2 0xD0E JUMP JUMPDEST PUSH2 0x7A1 JUMP JUMPDEST SWAP1 POP SWAP2 SWAP1 POP JUMP JUMPDEST PUSH1 0x0 DUP2 SWAP1 POP SWAP2 SWAP1 POP JUMP JUMPDEST PUSH2 0xD4D DUP4 PUSH2 0xD18 JUMP JUMPDEST PUSH2 0xD61 PUSH2 0xD59 DUP3 PUSH2 0xD3A JUMP JUMPDEST DUP5 DUP5 SLOAD PUSH2 0xCBC JUMP JUMPDEST DUP3 SSTORE POP POP POP POP JUMP JUMPDEST PUSH1 0x0 SWAP1 JUMP JUMPDEST PUSH2 0xD76 PUSH2 0xD69 JUMP JUMPDEST PUSH2 0xD81 DUP2 DUP5 DUP5 PUSH2 0xD44 JUMP JUMPDEST POP POP POP JUMP JUMPDEST JUMPDEST DUP2 DUP2 LT ISZERO PUSH2 0xDA5 JUMPI PUSH2 0xD9A PUSH1 0x0 DUP3 PUSH2 0xD6E JUMP JUMPDEST PUSH1 0x1 DUP2 ADD SWAP1 POP PUSH2 0xD87 JUMP JUMPDEST POP POP JUMP JUMPDEST PUSH1 0x1F DUP3 GT ISZERO PUSH2 0xDEA JUMPI PUSH2 0xDBB DUP2 PUSH2 0xC8A JUMP JUMPDEST PUSH2 0xDC4 DUP5 PUSH2 0xC9F JUMP JUMPDEST DUP2 ADD PUSH1 0x20 DUP6 LT ISZERO PUSH2 0xDD3 JUMPI DUP2 SWAP1 POP JUMPDEST PUSH2 0xDE7 PUSH2 0xDDF DUP6 PUSH2 0xC9F JUMP JUMPDEST DUP4 ADD DUP3 PUSH2 0xD86 JUMP JUMPDEST POP POP JUMPDEST POP POP POP JUMP JUMPDEST PUSH1 0x0 DUP3 DUP3 SHR SWAP1 POP SWAP3 SWAP2 POP POP JUMP JUMPDEST PUSH1 0x0 PUSH2 0xE0D PUSH1 0x0 NOT DUP5 PUSH1 0x8 MUL PUSH2 0xDEF JUMP JUMPDEST NOT DUP1 DUP4 AND SWAP2 POP POP SWAP3 SWAP2 POP POP JUMP JUMPDEST PUSH1 0x0 PUSH2 0xE26 DUP4 DUP4 PUSH2 0xDFC JUMP JUMPDEST SWAP2 POP DUP3 PUSH1 0x2 MUL DUP3 OR SWAP1 POP SWAP3 SWAP2 POP POP JUMP JUMPDEST PUSH2 0xE40 DUP4 DUP4 PUSH2 0xC50 JUMP JUMPDEST PUSH8 0xFFFFFFFFFFFFFFFF DUP2 GT ISZERO PUSH2 0xE59 JUMPI PUSH2 0xE58 PUSH2 0xC5B JUMP JUMPDEST JUMPDEST PUSH2 0xE63 DUP3 SLOAD PUSH2 0xC1F JUMP JUMPDEST PUSH2 0xE6E DUP3 DUP3 DUP6 PUSH2 0xDA9 JUMP JUMPDEST PUSH1 0x0 PUSH1 0x1F DUP4 GT PUSH1 0x1 DUP2 EQ PUSH2 0xE9D JUMPI PUSH1 0x0 DUP5 ISZERO PUSH2 0xE8B JUMPI DUP3 DUP8 ADD CALLDATALOAD SWAP1 POP JUMPDEST PUSH2 0xE95 DUP6 DUP3 PUSH2 0xE1A JUMP JUMPDEST DUP7 SSTORE POP PUSH2 0xEFD JUMP JUMPDEST PUSH1 0x1F NOT DUP5 AND PUSH2 0xEAB DUP7 PUSH2 0xC8A JUMP JUMPDEST PUSH1 0x0 JUMPDEST DUP3 DUP2 LT ISZERO PUSH2 0xED3 JUMPI DUP5 DUP10 ADD CALLDATALOAD DUP3 SSTORE PUSH1 0x1 DUP3 ADD SWAP2 POP PUSH1 0x20 DUP6 ADD SWAP5 POP PUSH1 0x20 DUP2 ADD SWAP1 POP PUSH2 0xEAE JUMP JUMPDEST DUP7 DUP4 LT ISZERO PUSH2 0xEF0 JUMPI DUP5 DUP10 ADD CALLDATALOAD PUSH2 0xEEC PUSH1 0x1F DUP10 AND DUP3 PUSH2 0xDFC JUMP JUMPDEST DUP4 SSTORE POP JUMPDEST PUSH1 0x1 PUSH1 0x2 DUP9 MUL ADD DUP9 SSTORE POP POP POP JUMPDEST POP POP POP POP POP POP POP JUMP JUMPDEST PUSH1 0x0 PUSH2 0xF11 DUP3 PUSH2 0x7A1 JUMP JUMPDEST SWAP2 POP PUSH32 0xFFFFFFFFFFFFFFFFFFFFFFFFFFFFFFFFFFFFFFFFFFFFFFFFFFFFFFFFFFFFFFFF DUP3 SUB PUSH2 0xF43 JUMPI PUSH2 0xF42 PUSH2 0xB90 JUMP JUMPDEST JUMPDEST PUSH1 0x1 DUP3 ADD SWAP1 POP SWAP2 SWAP1 POP JUMP INVALID LOG2 PUSH5 0x6970667358 0x22 SLT KECCAK256 PUSH15 0x55AA5E8C67F9F8768C9F8E7D95BC17 LOG1 0xB9 0xD0 0xBB 0xC0 0xF9 RETURNDATASIZE 0xCC LOG2 0xE 0xC9 0xA8 DUP5 CALLER 0xFB 0xB0 PUSH5 0x736F6C6343 STOP ADDMOD 0xF STOP CALLER "},"gasEstimates":{"creation":{"codeDepositCost":"794400","executionCost":"infinite","totalCost":"infinite"},"external":{"approveRequest(uint256)":"infinite","approvers(address)":"2868","contribute()":"53244","createRequest(string,uint256,address)":"infinite","finalizeRequest(uint256)":"infinite","manager()":"2559","minimumContribution()":"2451","requests(uint256)":"infinite"}},"methodIdentifiers":{"approveRequest(uint256)":"d7d1bbdb","approvers(address)":"0a144391","contribute()":"d7bb99ba","createRequest(string,uint256,address)":"8a9cfd55","finalizeRequest(uint256)":"03441006","manager()":"481c6a75","minimumContribution()":"937e09b1","requests(uint256)":"81d12c58"}},"storageLayout":{"storage":[{"astId":59,"contract":"Campaign.sol:Campaign","label":"requests","offset":0,"slot":"0","type":"t_array(t_struct(Request)55_storage)dyn_storage"},{"astId":61,"contract":"Campaign.sol:Campaign","label":"manager","offset":0,"slot":"1","type":"t_address"},{"astId":63,"contract":"Campaign.sol:Campaign","label":"minimumContribution","offset":0,"slot":"2","type":"t_uint256"},{"astId":67,"contract":"Campaign.sol:Campaign","label":"approvers","offset":0,"slot":"3","type":"t_mapping(t_address,t_bool)"},{"astId":69,"contract":"Campaign.sol:Campaign","label":"approversCount","offset":0,"slot":"4","type":"t_uint256"}],"types":{"t_address":{"encoding":"inplace","label":"address","numberOfBytes":"20"},"t_address_payable":{"encoding":"inplace","label":"address payable","numberOfBytes":"20"},"t_array(t_struct(Request)55_storage)dyn_storage":{"base":"t_struct(Request)55_storage","encoding":"dynamic_array","label":"struct Campaign.Request[]","numberOfBytes":"32"},"t_bool":{"encoding":"inplace","label":"bool","numberOfBytes":"1"},"t_mapping(t_address,t_bool)":{"encoding":"mapping","key":"t_address","label":"mapping(address => bool)","numberOfBytes":"32","value":"t_bool"},"t_string_storage":{"encoding":"bytes","label":"string","numberOfBytes":"32"},"t_struct(Request)55_storage":{"encoding":"inplace","label":"struct Campaign.Request","members":[{"astId":42,"contract":"Campaign.sol:Campaign","label":"description","offset":0,"slot":"0","type":"t_string_storage"},{"astId":44,"contract":"Campaign.sol:Campaign","label":"value","offset":0,"slot":"1","type":"t_uint256"},{"astId":46,"contract":"Campaign.sol:Campaign","label":"recipient","offset":0,"slot":"2","type":"t_address_payable"},{"astId":48,"contract":"Campaign.sol:Campaign","label":"complete","offset":20,"slot":"2","type":"t_bool"},{"astId":50,"contract":"Campaign.sol:Campaign","label":"approvalCount","offset":0,"slot":"3","type":"t_uint256"},{"astId":54,"contract":"Campaign.sol:Campaign","label":"approvals","offset":0,"slot":"4","type":"t_mapping(t_address,t_bool)"}],"numberOfBytes":"160"},"t_uint256":{"encoding":"inplace","label":"uint256","numberOfBytes":"32"}}},"userdoc":{"kind":"user","methods":{},"version":1}}